:020000040800F2
:10000000E00F0020C1010008011A00087515000862
:10001000BF1600080D0D00088D2C00080000000020
:1000200000000000000000000000000001250008A2
:1000300079110008000000008F1C000869260008E4
:10004000DB010008DB010008DB010008DB01000820
:10005000DB010008DB010008DB010008DB01000810
:10006000DB010008DB010008DB010008DB01000800
:10007000DB010008DB010008DB010008DB010008F0
:10008000DB010008DB010008DB010008DB010008E0
:10009000DB010008DB010008DB010008DB010008D0
:1000A000DB010008DB010008DB010008DB010008C0
:1000B000DB010008DB010008DB010008DB010008B0
:1000C000DB010008DB010008DB010008DB010008A0
:1000D000DB0100088D290008F5290008452A0008E1
:1000E000DB010008DB010008DB010008DB01000880
:1000F000DB010008DB010008DB010008DB01000870
:10010000DB010008DB010008DB010008DB0100085F
:10011000ED280008DB010008DB010008DB01000816
:10012000DB010008DB010008DB010008DB0100083F
:10013000DB010008DB010008DB010008DB0100082F
:10014000DB010008DB010008DB010008DB0100081F
:10015000DB010008DB010008DB010008952A00082C
:10016000DB010008DB010008DB010008DB010008FF
:10017000DB010008DB010008DB010008DB010008EF
:10018000DB010008DB0100083D290008DB01000855
:10019000DB010008DB010008DB010008DB010008CF
:1001A000DB010008DB010008DB010008DFF80CD0F0
:1001B00000F0DAFB00480047B12E0008E00F0020F5
:1001C0000648804706480047FEE7FEE7FEE7FEE7F1
:1001D000FEE7FEE7FEE7FEE7FEE7FEE71127000881
:1001E000AD0100080FB400B58DB010A909900B90B7
:1001F00000914FF0FF300A9000200C9005480690C7
:10020000054807906A4609A80F9900F0DFFA0DB07B
:100210005DF814FBE9070008070800082DE9FF4F07
:10022000087883B09946FF2805D0491C2D2804D0B2
:100230000024002008E000200BE00124F9E700EB97
:10024000800003EB4000491C0B78FF2BF7D104B171
:10025000404200230293147819461D462D2C01D0EC
:100260002B2C04D1521C2D2C13D000240294AA460E
:100270001478FF2C0FD00A25A3FB057801FB05811C
:100280004FF0000C03FB0C11521CE3194AEB010167
:10029000EEE70124EAE7814453EA010002D019F5B0
:1002A000C87F06DA03980021C0E9001107B0BDE855
:1002B000F08F0025AE4E2F46DFF8B882184600F0CA
:1002C00047FBCDE90001B9F1000002DAC9F10004F1
:1002D00000E004460023A74A1AEB030B42EB045A42
:1002E00012E0E00707D02A4633463846414600F080
:1002F00045F9074688462A4633461046194600F017
:100300003DF905460E466410002CEAD1DDE90001F6
:10031000B9F1000F5A46534606DA00F0A1F93A4601
:10032000434600F09DF905E000F028F93A464346BF
:1003300000F024F9029A0AB181F00041039AC2E95F
:100340000001B3E72DE9FF4F1F468DB0D7E9014605
:100350004FF0FF382E2045464FF000090B90B96949
:100360006D1C0E988847396A824688470028F6D166
:10037000BAF1FF3F0AD024F4D064002E11DDBAF1A7
:100380002B0F08D0BAF12D0F0BD102E0404611B06F
:100390008DE744F48064B9696D1C0E9888478246E5
:1003A000761E6946600501D52D2000E02B208DF8D2
:1003B000000001F1010B0DF1200809E0B9696D1C85
:1003C0000E98884782460F9844F40074761E0560A4
:1003D000002E02DDBAF1300FF0D00B998A453ED1E4
:1003E00044F0800406E00F99681CA9F1010944F467
:1003F00000740860B9696D1C761E0E9888478246A5
:100400003028F0D02BE00B998A4505D1200603D483
:1004100044F08004761E18E0504602F092FC08B3C7
:100420000DF11301761E44F400748B4508D2AAF135
:1004300030000BF8010B200607D5A9F1010003E0FD
:10044000200602D409F101008146A00502D50F99CA
:10045000681C0860B9696D1C0E9888478246002E9A
:10046000D1DC53E0002E51DDBAF1650F02D0BAF1B4
:10047000450F4BD1A00549D5B9696D1C24F44074D2
:10048000761E0E9888478246002E0CDD2B2804D05D
:10049000BAF12D0F07D144F48074B9696D1C0E9820
:1004A00088478246761EE00501D52D2100E02B21EC
:1004B00008F8011BCDF82C8021E00DF12901761EF2
:1004C00044F4007488450CD2AAF1300010F0FF000B
:1004D00088F8000002D10B99884509D908F1010874
:1004E00006E0E00501D5244801E042F20F708146A4
:1004F000B9696D1C0E98884782460F980560002EDA
:1005000004DD504602F01DFC0028D6D1F9690E9892
:100510008847FF208BF8000088F800000020069034
:1005200007904B466A4608A906A8FFF777FEA00584
:1005300002D46FF001002AE714F0240F0AD0E0077C
:1005400014D1DDE906123868031D3B600068C0E97C
:1005500000120BE0DDE9060100F0F1F80146E007CA
:1005600004D13868021D3A600068016028460EE731
:10057000000014400000F03FF1D8FFFF2DE9FE4FCE
:1005800081EA030404F0004421F0004100944FF09C
:10059000000B23F0004350EA01045ED052EA03044A
:1005A0005BD0C3F30A54C1F30A552C44A4F2F334CC
:1005B0000194A0FB0254C1F3130141F48011C3F371
:1005C000130343F4801301FB024400FB034E840A2F
:1005D000970A44EA815447EA8357A4FB07680295C7
:1005E0008D0A05FB07854FEA932C04FB0C54270565
:1005F000029D4FEA065847EA1637B5EB08056EEB41
:10060000070C870E920E47EA811742EA8312A7FB76
:100610000201B6EB0B0164EB00042B0D43EA0C3333
:100620005E1844EB1C50DA465146E7FB0201C5F365
:1006300013044FEA0B3343EA14534FEA0432019C8C
:1006400043EA0603A4F10C040294009CCDE900B433
:1006500000F030F903B0BDE8F08F00200146F9E763
:100660002DE9F04D81EA030404F0004B21F0004530
:1006700014464FF0000A23F0004150EA050220D052
:1006800054EA01021DD0C5F30A570246C5F313030D
:10069000C1F31300C1F30A5640F4801543F48013EC
:1006A000A7EB0608101BD64608F2FD3873EB0500D1
:1006B00002D308F1010801E092185B41B8F1000F84
:1006C00003DA00200146BDE8F08D00204FF48011D0
:1006D000064684460EE0171B73EB050705D3121B75
:1006E00063EB050306434CEA010C49084FEA30006E
:1006F00092185B4150EA0107EDD152EA030012D093
:1007000082EA040083EA0501084305D0101BAB41CF
:1007100006D20122002306E000224FF0004302E04F
:100720006FF0010253101AEB06004CEB085110EB6E
:100730000A0041EB0B01BDE8F04D00F0ACB801F050
:10074000004330B421F0004150EA010206D00A0D06
:10075000A2F56072C1F31301002A02DC30BC002054
:100760007047440F44EAC104C100E01830BC00EBFC
:10077000C25000F059B830B50B4601460020202287
:10078000012409E021FA02F59D4205D303FA02F59E
:10079000491B04FA02F52844151EA2F10102F1DCFE
:1007A00030BD202A04DB203A00FA02F10020704715
:1007B0009140C2F1200320FA03F31943904070479F
:1007C000026811441378016018467047D1600449EB
:1007D00051610449116200211161114600F0ECB829
:1007E000C1070008AD090008426842B1016811F86C
:1007F000013B23B1521EC0E9001218467047012187
:10080000C160881E704742685AB1C368016843B925
:1008100083688B4205D0491E521CC0E9001200209B
:1008200070474FF0FF3070470029A8BF7047401C49
:10083000490008BF20F00100704710B4B0FA80FCF6
:1008400000FA0CF050EA010404BF10BC704749B133
:10085000CCF1200421FA04F411FA0CF118BF0121A3
:1008600021430843A3EB0C01CB1D4FEA00614FEA83
:10087000102042BF002010BC704700EBC350104452
:100880000029A4BF10BC7047401C490008BF20F0DD
:10089000010010BC704710B5141E73F1000408DA93
:1008A000401C41F1000192185B411A4301D120F034
:1008B000010010BD2DE9F04D92469B4611B1B1FAF1
:1008C00081F202E0B0FA80F220329046FFF769FF31
:1008D00004460F4640EA0A0041EA0B0153465A46D5
:1008E000084313D0114653EA010019D0C8F1400261
:1008F000504600F04BF805460E46504659464246D3
:10090000FFF74FFF084305D0012004E02046394699
:10091000BDE8F08D0020054346EAE0762C433743DE
:100920000A986305E40AA0EB08000022FD0A44EAE5
:1009300047540A3002D500200146E9E701051019A5
:100940006941DDE9084500196941BDE8F04DA2E7BC
:100950000EB540F2334202920022CDE90022134646
:10096000FFF7A8FF03B000BD064C074D06E0E068A6
:1009700040F0010394E8070098471034AC42F6D3E6
:10098000FFF718FC5832000878320008202A04DBF0
:10099000203A21FA02F00021704721FA02F3D040F8
:1009A000C2F120029140084319467047C0B24FF48B
:1009B000F05100F097B900002DE9F34F8BB04FF0E4
:1009C000000801F10C000C464FF0010B46460DF1FA
:1009D000080A01906269012101989047051E2DD0F7
:1009E000252D2CD0216A8847C0B162690121019868
:1009F0009047216A88470028F7D1411E6269019813
:100A0000904700E0761CA1690B988847216A8847C7
:100A10000028F7D1E1690B988847DBE7A1690B98BB
:100A200088470746A84201D1761CD3E7E1690B98B5
:100A300088477F1C02D1B8F1000F6FD046E1002734
:100A400062693D463946019890472A2804D1626977
:100A50000121019890470125DFF884926269012104
:100A600001989047A0F130010A290AD24F45E5DCF0
:100A700007EB870100EB4107303FDFD445F010055D
:100A8000ECE7E90601D46FF000476C280AD04C2847
:100A900014D0682815D06A280DD074281CD07A2864
:100AA0001AD01DE062690121019890476C2802D09C
:100AB00045F0040514E045F002050DE045F0200581
:100AC0000AE06269012101989047682802D045F048
:100AD000080505E045F40065626901210198904729
:100AE000C4E9015765283DD019DC58287AD00CDCC0
:100AF000452837D004DC252826D0412831D131E0E3
:100B000046282FD047282CD12CE05B2877D06128AD
:100B100028D063287CD0642823D15AE0D0E06F2805
:100B200048D008DC66281DD067281BD0692821D052
:100B30006E2816D127E0702845D0732868D0752814
:100B400047D078280DD14DE0A1690B98884705461C
:100B500025283FF469AFE1690B9888476D1C3FF485
:100B60006AAFB3E023466A466FF001000B99FFF7C6
:100B7000E9FB9EE045F040006060A80723464FF087
:100B8000000236D43EE0E8077FF447AF2068011D3D
:100B900021600068290501D506701BE7290701D5EA
:100BA000068017E7A90703D5F117C0E9006111E72F
:100BB00006600FE745F040006060A80723464FF04D
:100BC000080216D41EE040F60E0125EA010060601E
:100BD00016E045F040006060A80723464FF00A0287
:100BE00007D40FE045F040006060A80708D5234611
:100BF00010226FF001000B99AFF3008059E007E07D
:100C0000234610226FF001000B99AFF3008050E0F3
:100C10004FF000094F464B46632802D05B2806D0B0
:100C200040E0E80601D40120A06001273AE06269B3
:100C30000121019890475E2805D14FF001096269B2
:100C4000494601989047216939B900210A4653461F
:100C500043F82120491C0829FADBB0B3216969B99E
:100C6000C11700EBD16253110AEB830122F01F027E
:100C7000821A01200B68904003430B6062690121D6
:100C8000019890475D28E8D1B9F1000F09D0002004
:100C9000514651F82020D24341F82020401C08281A
:100CA000F7DB02AB224600976FF001000B99AFF320
:100CB000008000280CDA401C08D1BBF1000F05D0E1
:100CC0004FF0FF300DB0BDE8F08FFFE74046F9E789
:100CD000E90701D108F1010806444FF0000B79E65D
:100CE000CCCCCC0C7F2801D9002208E0064A02EBCC
:100CF0005002C007127800D1120902F00F02012041
:100D0000904008407047000018320008FEE70000DD
:100D100030B502464FF6FF70064D07E012F8013B72
:100D20004340DBB2040A35F813006040491EC9B2E3
:100D3000F4D230BD183000082DE9F04186B00646E7
:100D40000121084600F0A4FF0121C80400F0AEFF15
:100D500000248DF8164001278DF8177002258DF8B4
:100D600015508DF814500495DFF8708004A94046A2
:100D700000F096FB8DF81450049704A9404600F04B
:100D80008FFB08220021404600F0C8FB0822012109
:100D9000404600F0C3FB642046430096ADF8044093
:100DA000ADF80640ADF80840ADF80C400C20ADF8A9
:100DB0000A000B4C6946204601F002FF00F038F8AB
:100DC000012240F22551204601F0DFFE012120469C
:100DD00001F0A8FE06B0BDE8F0810000000002406E
:100DE000004C004070B5104DB5F8EE0060280AD0F8
:100DF000C02808D0B0F5C07F05D04FF4906188427C
:100E000001D0A5F8EE10B5F8EE00FFF795FF074CFE
:100E100000206070A070A5F860000720207000F02E
:100E20008FFB606070BD0000EC0000208800002097
:100E300008B54FF4A06000F019FE34208DF80000D2
:100E400001208DF8010003218DF802108DF80300B8
:100E5000684600F0D7FD08BD70B5134D6878297855
:100E600088421FD31148017801291BD140781028EE
:100E700018D100200E4C00F1780134F811205039BF
:100E800024F81120401C0428F5DB00F059FBA98848
:100E9000411A24F8581F68606089401C6081002056
:100EA000A870687070BD000088000020DC0A002077
:100EB000EC00002010B5174817498278012A04D1A8
:100EC000B1F86020521CA1F860200022427001227B
:100ED000827031F8F00F0F4C020A0834E271207270
:100EE0004888020A6272A0728888020AE27220733D
:100EF000C888010A6173A0730F212046FFF708FF1D
:100F0000E073000A20742146BDE810401122034816
:100F100001F0C9BE88000020EC000020004C004019
:100F2000F0B587B006460121042000F0B1FE012192
:100F3000202000F0C9FE00248DF81A4001208DF811
:100F40001B0002258DF819508DF81850802105914D
:100F50001B4F05A9384600F0A3FA8DF81850402021
:100F6000059005A9384600F09BFA0822062138466C
:100F700000F0D4FA08220721384600F0CFFA6420A6
:100F800046430196ADF80840ADF80A40ADF80C4074
:100F9000ADF810400C20ADF80E000A4C01A9204617
:100FA00001F00EFE00F02EF8012240F225512046FD
:100FB00001F0EBFD0121204601F0B4FD07B0F0BDCA
:100FC000000802400014014010B50C49B1F8CE00F1
:100FD00060280AD0C02808D04FF4C072904204D0D4
:100FE000B0F5906F01D0A1F8CE20B1F9CE00FFF797
:100FF00097FF034900200870487010BDEC000020E6
:101000006C00002008B54FF4A06000F02FFD4720D1
:101010008DF8000001208DF8010003218DF80210E9
:101020008DF80300684600F0EDFC08BD70B52DEDAD
:10103000028B82B0474D687800287CD0464C608A8D
:10104000401C80B26082454EB2EE048A717850290D
:1010500017D1401C60822A1D41A13046FFF7C2F81B
:1010600001280ED100F06CFA95ED010A20EE080A75
:10107000BCEEC00A10EE101A2180A98A411A6180C4
:1010800068617078002643285AD1324837A1103061
:10109000031F00901A1F3148FFF7A4F803284FD10F
:1010A00000F04EFA95ED020A20EE080ABCEEC00AE6
:1010B00010EE101AA18095ED030A20EE080ABDEE8D
:1010C000C00A10EE101AE18095ED040A20EE080A1D
:1010D000BDEEC00A10EE101A2181298B411A6181E0
:1010E000A861B4F8F80008B10A2801D9A4F8F8609A
:1010F000B4F8FA006438642802D3C720A4F8FA00D0
:10110000B4F8F80034F81010A4F8FC10B4F8FA1091
:1011100034F8102034F81110511A09B2B1F5E16F0A
:1011200003DDA2F56162A4F8FC2011F5E16F07DA96
:1011300034F8100000E008E000F56160A4F8FC005D
:10114000608A401C60822E706E7002B0BDEC028B13
:1011500070BD00006C000020EC000020DC090020C5
:1011600024504950532C25662C4D2A0024432566D3
:101170005025665225662A007047000070B501466A
:101180000F4DA868427842F08002427081700321BE
:10119000FFF7BEFDA968C870000A08710024094E57
:1011A000A868015D304601F06DFD4021304601F038
:1011B000C5FC0028F9D0641C052CF1DB70BD0000D3
:1011C0002400002000100140014908607047000021
:1011D0000C3C024070B506460025002905D00129C7
:1011E00027D0022928D04FF4407500F081F8092853
:1011F0001ED1134C206820F44070206020682843E2
:101200002060206820F0F8002060206846F002018D
:1012100008432060206840F48030206000F068F8C7
:10122000216821F002012160216821F0F80121608C
:1012300070BD4FF48075D8E74FF40075D5E7000016
:10124000103C024009200D490A68D20301D5012053
:1012500070470A68D20601D5062070470A68D20591
:1012600001D5022070470A6812F0E00F01D0072074
:10127000704709688907FBD5082070470C3C02407D
:101280000248016841F0004101607047103C024093
:1012900070B505460E4600F02BF8092813D10A4C0C
:1012A000206820F440702060206840F48070206046
:1012B000206840F0010020602E8000F019F82168BD
:1012C00021F00101216070BD103C0240054800681A
:1012D000002805DA034804490C380160034901601D
:1012E00070470000103C024023016745AB89EFCDF9
:1012F00008B509200090FFF7A5FF009002E0FFF776
:10130000A1FF00909DF800000128F8D09DF8000092
:1013100008BD000001460020A1F100624FF48043A7
:101320009A4204D320480844984201D208207047CA
:101330001E480844984201D2102070471C480844B7
:10134000984201D2182070471A480844B0F5803FEF
:1013500001D22020704718484FF4003208449042D0
:1013600001D22820704715480844904201D230200D
:10137000704713480844904201D238207047114802
:101380000844904201D2402070470F4808449042E0
:1013900001D2482070470D480844904201D25020A5
:1013A000704758207047000000C0FFF70080FFF72B
:1013B0000040FFF70000FFF70000FEF70000FCF719
:1013C0000000FAF70000F8F70000F6F70000F4F765
:1013D00010B5002305E030F8024B22F813405B1CE7
:1013E000DBB28B42F7D310BD2DE9F04105460E4626
:1013F0001746FFF76BFFF320FFF7E6FE2846FFF7DF
:1014000089FF044605EB4600FFF784FF804608E0AD
:1014100002212046FFF7DEFE092800D0FEE708344F
:10142000A4B24445F4D900240AE037F81410284641
:10143000FFF72EFF092800D0FEE7AD1C641CA4B204
:10144000B442F2D3BDE8F041FFF71ABF7CB50121E9
:10145000022000F01DFC4FF48054009400208DF811
:10146000060002208DF8070001218DF804108DF888
:1014700005000A4E6946304600F012F865000095F6
:101480006946304600F00CF82146304600F056F828
:101490002946304600F052F87CBD000000040240AE
:1014A0002DE9F041002201274FF0030C07FA02F565
:1014B0000B682B40AB422CD1066853000CFA03F4A6
:1014C000A64306600E79D0F800809E4046EA0806E2
:1014D00006600E79012E01D0022E12D18668A64335
:1014E00086604E79D0F808809E4046EA08068660FD
:1014F0004668AE43466045688E799640B6B235433D
:101500004560C568A543C560CC799C40C3681C4351
:10151000C460521C102AC9D3BDE8F08110B54B0736
:10152000DB0E9A40C90800EB8100016A0F249C4041
:10153000A1430162016A1143016210BD018370473A
:101540000148406870470000340000200A2804D297
:10155000074931F81020012A01D000207047044AC1
:10156000143A32F8102021F81020012070470000B2
:1015700020060020FEE710B545F2555000F032F885
:10158000022000F023F840F6FF7000F025F800F08C
:1015900015F8BDE8104000F001B8000002494CF613
:1015A000CC400860704700000030004002494AF615
:1015B000AA200860704700000030004002494AF647
:1015C000AA200860704700000030004001494860D0
:1015D00070470000003000400149886070470000FB
:1015E00000300040014908607047000000300040B2
:1015F00070B586B00121084600F04AFB0121102099
:1016000000F062FB00248DF8164001208DF81700D1
:1016100002258DF815508DF81450400204901C4E90
:1016200004A93046FFF73CFF8DF81450690204917D
:1016300004A93046FFF734FF07220A213046FFF79E
:101640006DFF072209213046FFF768FF4FF4E130B4
:101650000090ADF80440ADF80640ADF80840ADF894
:101660000C400C20ADF80A000A4C6946204601F0F7
:10167000A7FA00F011F8012240F22551204601F0AE
:1016800084FA0121204601F04DFA06B070BD000039
:10169000000002400010014008B54FF4A06000F0C7
:1016A000E5F925208DF8000001208DF801008DF866
:1016B00002008DF80300684600F0A4F908BDFEE7BB
:1016C0000248C188491CC1807047000024000020E6
:1016D0002DE9F0438A4CA0684178002904D0CA1F44
:1016E000082A01D3102902D90120BDE8F08321790D
:1016F000A1F10802F32A01D30320F6E7891EC9B23B
:10170000FFF706FB2179A268114411F8023D4978E0
:1017100043EA0121884201D00320E6E7D07891789E
:1017200040EA01205179137941EA03215378DFF827
:10173000D4C10126012B01D0022B3CD1B1F5707F21
:1017400001D90320D1E74318C82B01D90220CCE7E7
:10175000921C4B0707D0CB085B1C02F8013B0546E7
:101760000023002721E0CB08F7E73CF81580B8F10B
:10177000000F08D092F8008006FA03F948EA090839
:1017800082F8008007E092F8008006FA03F928EA60
:10179000090882F800805B1CDBB2082B01D3002310
:1017A000521C6D1CADB27F1CBFB28F42DDD3A2684C
:1017B0009278521D6271A36808275A78052A10D1C1
:1017C000C82801D3022090E7B1F57F4F02D021B1A4
:1017D00003208AE72CF8106002E000222CF8102089
:1017E00067715A780F2A23D14218C82A01D90220DA
:1017F0007BE70022DB1D0CEB400C002515E093F885
:10180000008006FA02F918EA090F02D04FF0010829
:1018100001E04FF000082CF8028B521CD2B2082ACB
:1018200001D300225B1C6D1CADB28D42E7D3677102
:10183000A368DFF8D4C05A78032A01D0042A24D13F
:101840007D2901D9032050E700EB0108B8F1C80F4A
:1018500001D9022049E70CEB40024D009D70DB1CD2
:1018600005460CE0B2F800904FEA192903F8019BF5
:1018700092F8009003F8019B921C6D1CADB2A84534
:10188000F0D8A2689278521D6271A2685378062B34
:101890000ED1C82801D3022027E72CF810106428A5
:1018A00000D32670A0F16403142B00D86670677112
:1018B0005378102B22D100EB0108B8F1C80F01D9E1
:1018C000022012E7D21D0CEB400103460CE012F897
:1018D000015B2D020D8012F801CB4CEA050CA1F83A
:1018E00000C0891C5B1C9BB29845F0D8642800D3CB
:1018F00026706438142800D2667067710020F4E600
:10190000240000207C020020EC00002010B59AB0DA
:101910001C4A1B48906000F58070D060A0F584647C
:101920000121A4F8C810B4F9CA0060280BD0C0285F
:1019300009D0B0F5C07F06D04FF49063984202D032
:10194000A4F8CA301170481EFE2802D3A4F8C810AB
:101950001170FFF7A1FEC8346421608810FB01F00C
:10196000FFF746FEB4F90230B4F9002006A101A841
:1019700001F0C4F901A90E4801F0ACF91AB010BD8C
:101980000C040020240000202050726F6772616DEB
:1019900020496E697469616C697A652E2E2E20412A
:1019A00064723A25642C20426175643A2564000013
:1019B0000010014070B5104CE08805281AD9A068C5
:1019C000E168A160E060A07820710025A570012287
:1019D000E27008280DD308780849B1F9C810884288
:1019E00007D1FFF775FE10B1FFF7C8FB01E000F06B
:1019F00047F8E58070BD000024000020EC000020C6
:101A00007047000030B50F23C27801250178002A05
:101A10001FD0154A126802F4E062C2F5E062C2F318
:101A20000722C2F10404D3404278A24084781C40CB
:101A30001443220101F1E02181F80024007800F034
:101A40001F018D404009800000F1E020C0F80051E6
:101A500030BD01F01F0085404809800000F1E02002
:101A6000C0F8805130BD00000CED00E00249084391
:101A700002490860704700000000FA050CED00E024
:101A800070B5124D6879801EC1B2A868FFF740F9A1
:101A90006A79A9680A4402F8020C6A79000A1144BA
:101AA00001F8010C00240A4E0BE0A868015D3046E5
:101AB00001F0E8F84021304601F040F80028F9D064
:101AC000641C68798442F0DB70BD000024000020B3
:101AD00000100140054A02EB410101600021018133
:101AE000C16001618182C18270470000EC0000206A
:101AF000F0B50168514E4A8A002A17D10289AAB16D
:101B0000B1F902104E4A26F81120B0F90810022946
:101B100001D0032905D10168B1F90210491C26F84A
:101B2000112000218182C1820161C1600268518A55
:101B30000181518A00297DD0B2F90030B2F9061036
:101B400036F91330C91AB0F91430B2F90840CD1A79
:101B50006C43558915FB0344B0F916505F4201EB05
:101B600047073D44B2F90C7007FB0544C3828182EC
:101B7000C168138AEBB30B194FF0FA718B4200DD89
:101B80000B4630498B4200DA0B46B2F90E10642442
:101B9000C90391FBF4F4641E4FF47A7193FBF1F1E5
:101BA000A14200DD21466442A14200DA2146B2F999
:101BB0000440B6F940518D4203DB6F428F4200DC96
:101BC00000218D4208DA47F6FF77A7EB040C0CFBE7
:101BD00001FC9CFBF7F121446D428D4207DDC4F509
:101BE00000454D43E91705EB5141C4EBE13189B2A2
:101BF00000E00BE0B2F9022001F5004424B226F81F
:101C000012400268558A022D02D006E00B1BB3E792
:101C1000B2F90220521C26F812400268548A032CA2
:101C200006D1C1F50044B2F90210491C26F8114052
:101C3000C16800E001E00161C360F0BDEC0000207C
:101C40000080FFFF00000CFE01680022B1F90030A7
:101C5000832B00D30A800168B1F90230643B642B06
:101C600001D3C7234B800168B1F90E30002B00DA95
:101C7000CA810168B1F90E30642B01DD6423CB8188
:101C80000068B0F91210042900D3428270477047EF
:101C9000054A002903D0116801431160704711689B
:101CA000814311607047000030380240054A002926
:101CB00003D01168014311607047116881431160BE
:101CC0007047000040380240054A002903D01168DF
:101CD0000143116070471168814311607047000033
:101CE0004438024070B5244B196801F00C01234CB4
:101CF00000291ED0224E04291DD008291DD00460C1
:101D0000196801F0F00109091E4A545C0168E140BC
:101D100041601C6804F4E054A40A145D21FA04F440
:101D200084601B6803F460435B0BD25CD140C160EC
:101D300070BD0460E4E70660E2E70F4A121F116815
:101D4000C1F38055116801F03F0135B1B6FBF1F1E7
:101D50001468C4F38814614305E0B4FBF1F114681E
:101D6000C4F3881461431268C2F30142521C52004A
:101D7000B1FBF2F10160C3E7083802400024F4002F
:101D800040787D0114000020F0B587B0064601219F
:101D90000220FFF77DFF01218804FFF787FF002461
:101DA0008DF81A4001208DF81B0002258DF819507E
:101DB0008DF81850C10205911B4F05A93846FFF751
:101DC0006FFB8DF818506802059005A93846FFF79B
:101DD00067FB07220A213846FFF7A0FB07220B21E9
:101DE0003846FFF79BFB642046430196ADF8084058
:101DF000ADF80A40ADF80C40ADF810400C20ADF83D
:101E00000E000A4C01A9204600F0DAFE00F03EF870
:101E1000012240F22551204600F0B7FE0121204664
:101E200000F080FE07B0F0BD000402400048004012
:101E300070B5134DB5F8D60060280AD0C02808D078
:101E40004FF4C071884204D0B0F5906F01D0A5F86E
:101E5000D610B5F8D600FFF797FF0A4C0020A07007
:101E6000E070A88495F8DC00052101EB40002070AB
:101E7000FFF766FB6060BDE87040034800F0E5BB1B
:101E8000EC0000204C0000207408002008B54FF43E
:101E9000A060FFF7EBFD27208DF8000001208DF8F2
:101EA000010003218DF802108DF803006846FFF74A
:101EB000A9FD08BD2DE9F0412F4DA8782978884269
:101EC00058D32E4E2E4C3078B4F8D810884251D1C9
:101ED000707803284ED1B078B4F8DC10B0EB410F25
:101EE00048D1FFF72DFBA18AA183E28AE283228BEE
:101EF00022843279F37842EA0322A282AB88C31AA1
:101F00009BB2E3826860501A20834FF480664FF4DE
:101F10004067B2420BD2B94209D900F5805CA4F8FF
:101F200018C0B4F80EC00CF1010CA4F80EC0BA42EF
:101F300007D9B14205D2A0F580502083E089401E28
:101F4000E08133B1208B4FF47A714843B0FBF3F05A
:101F50006083B4F91620B4F918100A4800F055FB54
:101F6000084800F045FB6084E08C401CE0840020C1
:101F7000E870A870BDE8F0814C00002074070020D4
:101F8000EC000020740800202DE9F041184D19499B
:101F9000E878012802D1888C401C88840027AF7023
:101FA0000120E870144E6A783078104317D0104C36
:101FB00011F8D80F083420704888020AA270E07027
:101FC0008888010A2171607106212046FEF7A0FE73
:101FD000A071000AE0713078401C30706F70BDE86D
:101FE000F041034908220831044800F05CBE0000BB
:101FF0004C000020EC00002025000020004800409C
:10200000F0B587B0064601211020FFF741FE0121FF
:102010008807FFF74BFE00248DF81A4001208DF849
:102020001B0002258DF819508DF8185001020591FA
:102030001B4F05A93846FFF733FA8DF8185080205A
:10204000059005A93846FFF72BFA082207213846E4
:10205000FFF764FA082211463846FFF75FFA64205A
:1020600046430196ADF80840ADF80A40ADF80C4083
:10207000ADF810400C20ADF80E000A4C01A9204626
:1020800000F09EFD00F03EF8012240F2255120466E
:1020900000F07BFD0121204600F044FD07B0F0BDBB
:1020A000001002400078004070B5134DB5F8DE0016
:1020B00060280AD0C02808D04FF4C071884204D0EC
:1020C000B0F5906F01D0A5F8DE10B5F8DE00FFF78F
:1020D00097FF0A4C0020A070E070288795F8E40074
:1020E000052101EB40002070FFF72AFA6060BDE88F
:1020F0007040034800F0A9BAEC0000205C0000200A
:10210000A809002008B54FF4A060FFF7AFFC5220EB
:102110008DF8000001208DF8010003218DF80210D8
:102120008DF803006846FFF76DFC08BD2DE9F0410E
:102130002F4DA8782978884258D32E4E2E4C3078CF
:10214000B4F8E010884251D1707803284ED1B078AD
:10215000B4F8E410B0EB410F48D1FFF7F1F9218D4D
:102160002186628D6286A28DA2863279F37842EA58
:1021700003222285AB88C31A9BB263856860501A1C
:10218000A0854FF480664FF44067B2420BD2B9424B
:1021900009D900F5805CA4F82CC0B4F810C00CF18B
:1021A000010CA4F810C0BA4207D9B14205D2A0F57B
:1021B0008050A085208A401E208233B1A08D4FF42C
:1021C0007A714843B0FBF3F0E085B4F92A20B4F902
:1021D0002C100A4800F019FA084800F009FAE086C5
:1021E000608F401C60870020E870A870BDE8F08117
:1021F0005C000020A8080020EC000020A8090020B6
:102200002DE9F041184D1949E878012802D1088FCD
:10221000401C08870027AF700120E870144E6A78D0
:102220003078104317D0104C11F8E00F08342070AC
:102230004888020AA270E0708888010A21716071E2
:1022400006212046FEF764FDA071000AE071307897
:10225000401C30706F70BDE8F0410349082208311E
:10226000044800F020BD00005C000020EC000020CD
:102270002500002000780040F0B587B00646012117
:102280000846FFF705FD01214804FFF70FFD002474
:102290008DF81A4001208DF81B0002258DF8195089
:1022A0008DF81850082105911B4F05A93846FFF7F6
:1022B000F7F88DF818500420059005A93846FFF767
:1022C000EFF8072202213846FFF728F907220321F9
:1022D0003846FFF723F9642046430196ADF80840DD
:1022E000ADF80A40ADF80C40ADF810400C20ADF848
:1022F0000E000A4C01A9204600F062FC00F03EF8F6
:10230000012240F22551204600F03FFC01212046E9
:1023100000F008FC07B0F0BD00000240004400409F
:1023200070B5134DB5F8E60060280AD0C02808D073
:102330004FF4C071884204D0B0F5906F01D0A5F879
:10234000E61035F8E60FFFF797FF0A4C0020A07063
:10235000E07025F89A0CA879052101EB4000207067
:10236000FFF7EEF86060BDE87040034800F06DB91B
:10237000EC0000203C0000204007002008B54FF48E
:10238000A060FFF773FB26208DF8000001208DF878
:10239000010003218DF802108DF803006846FFF755
:1023A00031FB08BD2DE9F041324DA87829788842EB
:1023B0005DD3314E314C3078B4F8E810884256D1B4
:1023C0007078032853D1B078B4F8EC10B0EB410F1B
:1023D0004DD1FFF7B5F834F83C1F21816288628146
:1023E000A288A2813279F37842EA03222280AB8864
:1023F000C31A9BB263806860501AA0803C3C4FF4C3
:1024000080664FF44067B2420BD2B94209D900F559
:10241000805CA4F840C0B4F812C00CF1010CA4F820
:1024200012C0BA4208D9B14206D2A0F58050A4F831
:102430004000608A401E608243B1B4F840004FF40F
:102440007A714843B0FBF3F0A4F8420034F93E2F10
:102450000B48B4F9021000F0D8F8094800F0C8F8A9
:10246000A081208A401C20820020E870A870BDE86E
:10247000F08100003C00002040060020EC0000201D
:10248000400700202DE9F041194D1A49E87801284C
:1024900004D1B1F84C00401CA1F84C000027AF70EB
:1024A0000120E870144E6A783078104317D0104C31
:1024B00011F8E80F083420704888020AA270E07012
:1024C0008888010A2171607106212046FEF720FCF0
:1024D000A071000AE0713078401C30706F70BDE868
:1024E000F041034908220831044800F0DCBB000039
:1024F0003C000020EC0000202500002000440040AB
:10250000704700001CB50021019100912E4A10680F
:1025100040F4803010604FF4A043106800F40030A5
:1025200000900198401C0190009810B901989842C1
:10253000F3D11068800302D50120009000E00091E3
:10254000009801283FD120484030016841F0805177
:1025500001601E49086840F4404008601A4808308D
:1025600003680360036843F400430360036843F4B3
:10257000A0530360041F164B2360136843F080735D
:10258000136013689B01FCD50A6842F480320A602C
:102590004A68D203FCD50A6842F400320A604A68ED
:1025A0009203FCD50B4A40F205711160016821F0DD
:1025B00003010160016841F0020101600168C1F39B
:1025C00081010229FAD11CBD003802400070004090
:1025D000195A4007003C02400A2806D2034A491C07
:1025E00022F81010143222F8101070470C06002048
:1025F0008168002907D040684FF47A72504390FBFD
:10260000F1F000B270470020704730B543685C18A5
:102610004460038800EB4303B3F90C50641B44602F
:10262000846814448460B3F92050641B84609981E9
:10263000018800EB41010A840188491C89B20180AC
:102640000A2901D30021018030BD0023038043808B
:1026500043608360002100EB410293811384491C95
:102660000A29F8DB7047000010B5FFF729F80C487D
:102670004168491C4160016811B90168491E016047
:102680000020084931F81020012A04D931F810201F
:10269000521E21F81020401C0A28F3DB10BD000058
:1026A000340000202006002010B5164842F21071B8
:1026B0000068B0FBF1F0401E00214FF0E022B0F1C5
:1026C000807F01D3012007E050610F4BF02018708C
:1026D000916107201061002000B1FEE7106960F0F1
:1026E000010010610020094A02F1140302F12804DC
:1026F00022F8101023F810102154401C0A28F7DB90
:1027000010BD00000000002023ED00E00C060020BA
:1027100010B51248016841F4700101601048016869
:1027200041F0010101600E4A002108321160026887
:102730000C4B1A400260031D0B4A1A60026822F417
:102740008022026006480C300160FFF7DBFE03497F
:102750004FF000608039086010BD000088ED00E097
:1027600000380240FFFFF6FE10300024F0B501688B
:10277000574E584D4A8A002A16D10289A2B1B1F9A2
:10278000021025F81160B0F90810022901D00329C0
:1027900005D10168B1F90210491C25F8116000212A
:1027A0008182C1820161C1600268518A0181518ABE
:1027B00000297DD0B2F90030B2F9061035F9133096
:1027C000C91AB0F91430B2F90840CF1A7C435789BE
:1027D00017FB0344B0F91670C3F1000C01EB4C0C6D
:1027E0006744B2F90CC00CFB0744C3828182C16804
:1027F000138AEBB12144384B994200DD1946364B20
:102800005B42994200DA1946B2F90E204A4364232A
:1028100092FBF3F24FF47A7392FBF3F212B2A5F843
:102820004421002A07DD00EE102AB8EEC00A08E0B5
:10283000A1EB0401DFE700EE102AB8EEC00AB1EE0A
:10284000400A9FED261ADFED260A50EE010A9FEDA1
:10285000251A00EE201ADFED240A40EE010A04DDFD
:10286000BDEEE00A10EE102A05E0BDEEE00A10EE23
:10287000102AC2F10002B2F5004F01DB47F6FF72E9
:10288000B24201DC124A521C92B2046802F50043C3
:102890001BB2B4F9024025F814300468668A022E8F
:1028A00004D1B4F90240641C25F81430036800E038
:1028B0000CE05C8A032C06D1B3F90230C2F5004269
:1028C0005B1C25F81320C2680261C160F0BD0000E6
:1028D0000080FFFFEC000020D0FB0100AD86C43C6F
:1028E00048E1C640CD4C33440088C24670B5104C18
:1028F00040F22551204600F028F940B1204600F072
:10290000BDF90C4B59784A1C5A700B4A505440F28E
:1029100027752946204600F018F9002806D02946D8
:102920002046BDE87040002200F02FB970BD0000C5
:10293000004C004088000020DC0A002070B5104CDC
:1029400040F22551204600F000F940B1204600F049
:1029500095F90C4B99784A1C9A700B4A505440F2E6
:1029600027752946204600F0F0F8002806D02946B1
:102970002046BDE87040002200F007B970BD00009D
:10298000007800405C000020A808002070B5164CBC
:1029900040F22551204600F0D8F8A8B1204600F0BA
:1029A0006DF9C1B2114B0025D87860B11048B0F96B
:1029B000C800884202D0987800B9DD709A78501C1F
:1029C0009870D8688154DD8040F2277529462046EA
:1029D00000F0BBF8002806D029462046BDE870402C
:1029E000002200F0D2B870BD001001402400002089
:1029F000EC00002070B5104C40F22551204600F04C
:102A0000A4F840B1204600F039F90C4B99784A1CE3
:102A10009A700B4A505440F227752946204600F020
:102A200094F8002806D029462046BDE870400022D0
:102A300000F0ABB870BD0000004400403C00002036
:102A40004006002070B5104C40F22551204600F0A1
:102A50007CF840B1204600F011F90C4B99784A1CE3
:102A60009A700B4A505440F227752946204600F0D0
:102A70006CF8002806D029462046BDE870400022A8
:102A800000F083B870BD0000004800404C000020FA
:102A90007407002070B51F4D40F22551284600F004
:102AA00054F838B3284600F0E9F8C1B201261A48B4
:102AB0001A4C2A290BD122780A2A08D9637833B90B
:102AC000531CDBB2237081540022C25466702278FA
:102AD00022B1637813B9531C23708154242909D17E
:102AE00022783AB962782AB9267001700C48C189F7
:102AF000491CC18140F227742146284600F025F880
:102B0000002806D021462846BDE87040002200F08B
:102B10003CB870BD00140140DC0900206C000020AE
:102B2000EC000020002904D0818941F4005181810A
:102B30007047818921F4005181817047024600204D
:102B400012880A4200D00120704770B5002440F678
:102B50006A12C1F3421301F01F05012606FA05F2BD
:102B6000012B0CD0022B0DD0838A1340090A8E4012
:102B7000008830400BB100B10124204670BD83892C
:102B80001340F3E7038A1340F0E710B540F66A13E9
:102B9000C1F3421301F01F040121A140012B07D012
:102BA000022B07D014303AB102680A43026010BD0C
:102BB0000C30F8E71030F6E702688A43026010BD77
:102BC0007FB504460D46208A20F44051E88808432A
:102BD0002082A08941F20C618843A9882A89114387
:102BE0006A8902431143A181A08A20F44071A88917
:102BF0000843A0826846FFF775F81E48844202D059
:102C00001D48844201D1039800E00298A18909047B
:102C100008D500EBC00101EB001029684900B0FBAA
:102C2000F1F007E000EBC00101EB0010296889001A
:102C3000B0FBF1F06422B0FBF2F109010B096FF077
:102C400018056B4300EB8300A3891D044FF032038A
:102C500007D503EBC000B0FBF2F000F0070008431B
:102C600006E003EB0010B0FBF2F000F00F000843A9
:102C700020817FBD00100140001401408088C0F316
:102C800008007047C1F3080181807047FEE710B566
:102C900004462046FFF7F6FF80212046FFF74EFF4F
:102CA0000028F9D010BD2DE9F04107460D46164623
:102CB00000240BE015F8011B3846FFF7E3FF8021E5
:102CC0003846FFF73BFF0028F9D0641CB442F1DB23
:102CD000BDE8F08170B506460D4600243046295DFA
:102CE000FFF7D5FF641C285D0028F7D1402130464E
:102CF000FFF724FF0028F9D070BD00000FB4084B87
:102D000010B504A902AA039800F022F8044602A90B
:102D1000002000F0C7F8204610BC5DF814FB00004E
:102D2000A52E000802E008C8121F08C1002AFAD127
:102D300070477047002001E001C1121F002AFBD13B
:102D4000704730380A2801D20120704700207047B0
:102D50002DE9FF4F89B09B460446002506E0252853
:102D60000BD05A460B999047641C6D1C20780028A4
:102D7000F5D10DB02846BDE8F08F0027B8460122F6
:102D8000474900E0074314F8013F203B02FA03F0F3
:102D90000842F7D120782E2819D114F8010F47F0F6
:102DA00004072A280ED06FF02F022078A0F13001FE
:102DB00009290CD808EB880102EB410100EB01085E
:102DC000641CF2E70A98641C50F8048B0A9020787F
:102DD0000028CED0642808D0692806D075281ED0D7
:102DE0005A460B9990476D1C58E00A994FF00A0912
:102DF00001C90A91002802DA40422D2102E039057A
:102E000004D52B218DF82010012103E0F90704D00F
:102E10002021F7E78A4608AE0DE00021FAE70A997B
:102E20004FF00A0901C90A91F7E74946FDF7A3FCEB
:102E3000303106F8011D0028F7D1ADEB060000F196
:102E40002009780701D44FF00108C84502DDA8EB3E
:102E5000090000E000208046002706E008A85A4646
:102E6000C05D0B9990476D1C7F1C5745F6DB04E055
:102E700030205A460B9990476D1CB8F10001A8F11B
:102E80000108F5DC05E016F8010B5A460B9990474E
:102E90006D1CB9F10001A9F10109F4DC641C65E7BE
:102EA000092801000A68531C0B601070704700006D
:102EB000FFF7FAFBFEF7CAFA514A524F90466421D7
:102EC0003846FEF785FA4E4C241D2088401C208091
:102ED0004D4D01202870FEF719FDFEF775F8FEF73D
:102EE000A7FFFFF7E1F8FFF71BFAFDF77BFF0026CE
:102EF000A4F84A60A4F85E60A4F87260A4F8746054
:102F000047F6FF70A084E084208560854FF4FA7155
:102F10000020FFF761FB4FF47A710120FFF75CFBA3
:102F200064210220FFF758FB64210320FFF754FBC4
:102F3000C8210420FFF750FBFEF71DFB8221334818
:102F4000FEF7C8FD31488C211830FEF7C3FD2F482D
:102F500096213030FEF7BEFD2D4CFEF72BFDFEF71F
:102F600065F8FEF7A7FFFFF7E1F8FFF71BFAFDF79B
:102F700073FF0020FEF7EAFA50B1FEF717FB254871
:102F8000016881F40051016020780A2800D9267078
:102F90000120FEF7DBFA90B1287880B14246642127
:102FA0003846FEF721FA1948FEF74EFE174818304A
:102FB000FEF74AFE15483030FEF746FE2E7002201E
:102FC000FEF7C4FA50B11148FEF792FD0F481830D1
:102FD000FEF78EFD0D483030FFF7C8FB0320FEF7EB
:102FE000B5FA28B1FEF7D0FFFFF70AF9FFF74AFA62
:102FF0000420FEF7ABFA0028AFD0FDF75BFFACE78B
:10300000B40100200000010824000020A4000020DA
:1030100025000020140402400000C1C081C140010D
:1030200001C3C003800241C201C6C006800741C778
:103030000005C1C581C4400401CCC00C800D41CD48
:10304000000FC1CF81CE400E000AC1CA81CB400B18
:1030500001C9C009800841C801D8C018801941D9E8
:10306000001BC1DB81DA401A001EC1DE81DF401F78
:1030700001DDC01D801C41DC0014C1D481D5401588
:1030800001D7C017801641D601D2C012801341D398
:103090000011C1D181D0401001F0C030803141F128
:1030A0000033C1F381F240320036C1F681F7403778
:1030B00001F5C035803441F4003CC1FC81FD403D48
:1030C00001FFC03F803E41FE01FAC03A803B41FB18
:1030D0000039C1F981F840380028C1E881E9402968
:1030E00001EBC02B802A41EA01EEC02E802F41EF78
:1030F000002DC1ED81EC402C01E4C024802541E588
:103100000027C1E781E640260022C1E281E3402397
:1031100001E1C021802041E001A0C060806141A1A7
:103120000063C1A381A240620066C1A681A7406777
:1031300001A5C065806441A4006CC1AC81AD406D47
:1031400001AFC06F806E41AE01AAC06A806B41AB17
:103150000069C1A981A840680078C1B881B94079E7
:1031600001BBC07B807A41BA01BEC07E807F41BF77
:10317000007DC1BD81BC407C01B4C074807541B587
:103180000077C1B781B640760072C1B281B3407397
:1031900001B1C071807041B00050C1908191405127
:1031A0000193C053805241920196C0568057419777
:1031B0000055C19581944054019CC05C805D419D47
:1031C000005FC19F819E405E005AC19A819B405B17
:1031D0000199C059805841980188C0488049418967
:1031E000004BC18B818A404A004EC18E818F404F77
:1031F000018DC04D804C418C0044C1848185404587
:103200000187C047804641860182C0428043418396
:103210000041C18181804040DDDDDDDDDCBBBBDD07
:10322000DDDDDDDDDDDDDDDD988888888888888866
:103230007777777777888888855555566666666686
:103240006666666666688888833333322222222265
:10325000222222222228888D7832000800000020B5
:10326000A4000000242D00081C330008A400002046
:103270003C0F0000342D00080095BA0A0000000041
:103280000000000001020304060708090000000016
:1032900001020304010203040607080900000000FC
:1032A000000000000000000000000000000000001E
:1032B00000000000550100000000000001030000B4
:1032C00000010000550100000000000001030000A3
:1032D0000001000055010000000000000103000093
:1032E00000010000000000000000000000000000DD
:1032F00000000000000000000000000000000000CE
:10330000550000000000000001100000000408113A
:0C33100011222233334444CCCC000000D6
:04000005080001AD41
:00000001FF
