:020000040800F2
:10000000F0120020C1010008951F0008091B00081C
:10001000531C00086F0D0008653200080000000046
:10002000000000000000000000000000412B00085C
:10003000D911000800000000CD220008A92C0008FA
:10004000DB010008DB010008DB010008DB01000820
:10005000DB010008DB010008DB010008DB01000810
:10006000DB010008DB010008DB010008DB01000800
:10007000DB010008DB010008DB010008DB010008F0
:10008000DB010008DB010008DB010008DB010008E0
:10009000DB010008DB010008DB010008DB010008D0
:1000A000DB010008DB010008DB010008DB010008C0
:1000B000DB010008DB010008DB010008DB010008B0
:1000C000DB010008DB010008DB010008DB010008A0
:1000D000DB010008652F0008CD2F00081D30000847
:1000E000DB010008DB010008DB010008DB01000880
:1000F000DB010008DB010008DB010008DB01000870
:10010000DB010008DB010008DB010008DB0100085F
:10011000C52E0008DB010008DB010008DB01000838
:10012000DB010008DB010008DB010008DB0100083F
:10013000DB010008DB010008DB010008DB0100082F
:10014000DB010008DB010008DB010008DB0100081F
:10015000DB010008DB010008DB0100086D3000084E
:10016000DB010008DB010008DB010008DB010008FF
:10017000DB010008DB010008DB010008DB010008EF
:10018000DB010008DB010008152F0008DB01000877
:10019000DB010008DB010008DB010008DB010008CF
:1001A000DB010008DB010008DB010008DFF80CD0F0
:1001B00000F0A4FB0048004789340008F01200203A
:1001C0000648804706480047FEE7FEE7FEE7FEE7F1
:1001D000FEE7FEE7FEE7FEE7FEE7FEE7512D00083B
:1001E000AD0100080FB400B58DB010A909900B90B7
:1001F00000914FF0FF300A9000200C9005480690C7
:10020000054807906A4609A80F9900F0C3FA0DB097
:100210005DF814FBB1070008CF0700082DE9FF4F78
:10022000087883B09946FF2805D0491C2D2804D0B2
:100230000024002008E000200BE00124F9E700EB97
:10024000800003EB4000491C0B78FF2BF7D104B171
:10025000404200230293147819461D462D2C01D0EC
:100260002B2C04D1521C2D2C13D000240294AA460E
:100270001478FF2C0FD00A25A3FB057801FB05811C
:100280004FF0000C03FB0C11521CE3194AEB010167
:10029000EEE70124EAE7814453EA010002D019F5B0
:1002A000C87F06DA03980021C0E9001107B0BDE855
:1002B000F08F0025AE4E2F46DFF8B882184600F0CA
:1002C000F4FACDE90001B9F1000002DAC9F1000445
:1002D00000E004460023A74A1AEB030B42EB045A42
:1002E00012E0E00707D02A4633463846414600F080
:1002F00045F9074688462A4633461046194600F017
:100300003DF905460E466410002CEAD1DDE90001F6
:10031000B9F1000F5A46534606DA00F0A1F93A4601
:10032000434600F09DF905E000F028F93A464346BF
:1003300000F024F9029A0AB181F00041039AC2E95F
:100340000001B3E72DE9FF4F1F468DB0D7E9014605
:100350004FF0FF382E2045464FF000090B90B96949
:100360006D1C0E988847396A824688470028F6D166
:10037000BAF1FF3F0AD024F4D064002E11DDBAF1A7
:100380002B0F08D0BAF12D0F0BD102E0404611B06F
:100390008DE744F48064B9696D1C0E9888478246E5
:1003A000761E6946600501D52D2000E02B208DF8D2
:1003B000000001F1010B0DF1200809E0B9696D1C85
:1003C0000E98884782460F9844F40074761E0560A4
:1003D000002E02DDBAF1300FF0D00B998A453ED1E4
:1003E00044F0800406E00F99681CA9F1010944F467
:1003F00000740860B9696D1C761E0E9888478246A5
:100400003028F0D02BE00B998A4505D1200603D483
:1004100044F08004761E18E0504602F07EFF08B3D8
:100420000DF11301761E44F400748B4508D2AAF135
:1004300030000BF8010B200607D5A9F1010003E0FD
:10044000200602D409F101008146A00502D50F99CA
:10045000681C0860B9696D1C0E9888478246002E9A
:10046000D1DC53E0002E51DDBAF1650F02D0BAF1B4
:10047000450F4BD1A00549D5B9696D1C24F44074D2
:10048000761E0E9888478246002E0CDD2B2804D05D
:10049000BAF12D0F07D144F48074B9696D1C0E9820
:1004A00088478246761EE00501D52D2100E02B21EC
:1004B00008F8011BCDF82C8021E00DF12901761EF2
:1004C00044F4007488450CD2AAF1300010F0FF000B
:1004D00088F8000002D10B99884509D908F1010874
:1004E00006E0E00501D5244801E042F20F708146A4
:1004F000B9696D1C0E98884782460F980560002EDA
:1005000004DD504602F009FF0028D6D1F9690E98A3
:100510008847FF208BF8000088F800000020069034
:1005200007904B466A4608A906A8FFF777FEA00584
:1005300002D46FF001002AE714F0240F0AD0E0077C
:1005400014D1DDE906123868031D3B600068C0E97C
:1005500000120BE0DDE9060100F0B3F90146E00707
:1005600004D13868021D3A600068016028460EE731
:10057000000014400000F03FF1D8FFFF2DE9FE4FCE
:1005800081EA030404F0004421F0004100944FF09C
:10059000000B23F0004350EA01045ED052EA03044A
:1005A0005BD0C3F30A54C1F30A552C44A4F2F334CC
:1005B0000194A0FB0254C1F3130141F48011C3F371
:1005C000130343F4801301FB024400FB034E840A2F
:1005D000970A44EA815447EA8357A4FB07680295C7
:1005E0008D0A05FB07854FEA932C04FB0C54270565
:1005F000029D4FEA065847EA1637B5EB08056EEB41
:10060000070C870E920E47EA811742EA8312A7FB76
:100610000201B6EB0B0164EB00042B0D43EA0C3333
:100620005E1844EB1C50DA465146E7FB0201C5F365
:1006300013044FEA0B3343EA14534FEA0432019C8C
:1006400043EA0603A4F10C040294009CCDE900B433
:1006500000F0DDF803B0BDE8F08F00200146F9E7B7
:100660002DE9F04D81EA030404F0004B21F0004530
:1006700014464FF0000A23F0004150EA050220D052
:1006800054EA01021DD0C5F30A570246C5F313030D
:10069000C1F31300C1F30A5640F4801543F48013EC
:1006A000A7EB0608101BD64608F2FD3873EB0500D1
:1006B00002D308F1010801E092185B41B8F1000F84
:1006C00003DA00200146BDE8F08D00204FF48011D0
:1006D000064684460EE0171B73EB050705D3121B75
:1006E00063EB050306434CEA010C49084FEA30006E
:1006F00092185B4150EA0107EDD152EA030012D093
:1007000082EA040083EA0501084305D0101BAB41CF
:1007100006D20122002306E000224FF0004302E04F
:100720006FF0010253101AEB06004CEB085110EB6E
:100730000A0041EB0B01BDE8F04D00F059B830B5AF
:100740000B46014600202022012409E021FA02F58F
:100750009D4205D303FA02F5491B04FA02F5284429
:10076000151EA2F10102F1DC30BD202A04DB203A83
:1007700000FA02F1002070479140C2F1200320FAF4
:1007800003F31943904070470268114413780160E5
:1007900018467047D1600449516104491162002133
:1007A0001161114600F0D2B889070008410900081C
:1007B000426842B1016811F8013B23B1521EC0E901
:1007C0000012184670470121C160881E70474268B8
:1007D0005AB1C368016843B983688B4205D0491E8A
:1007E000521CC0E90012002070474FF0FF307047E4
:1007F00010B5141E73F1000408DA401C41F1000129
:1008000092185B411A4301D120F0010010BD2DE97F
:10081000F04D92469B4611B1B1FA81F202E0B0FA76
:1008200080F220329046FFF7A0FF04460F4640EAD0
:100830000A0041EA0B0153465A46084313D01146B9
:1008400053EA010019D0C8F14002504600F068F8A0
:1008500005460E46504659464246FFF786FF084376
:1008600005D0012004E020463946BDE8F08D002087
:10087000054346EAE0762C4337430A986305E40AC9
:10088000A0EB08000022FD0A44EA47540A3002D5D2
:1008900000200146E9E7010510196941DDE9084535
:1008A00000196941BDE8F04DA2E70EB540F23342B0
:1008B00002920022CDE900221346FFF7A8FF03B001
:1008C00000BD01F0004330B421F0004150EA0102C4
:1008D00006D00A0DA2F56072C1F31301002A02DCF2
:1008E00030BC00207047440F44EAC104C100E01846
:1008F00030BC00EBC25000F0BFB90000064C074D01
:1009000006E0E06840F0010394E8070098471034DF
:10091000AC42F6D3FFF74EFCE0390008003A00087D
:10092000202A04DB203A21FA02F00021704721FA44
:1009300002F3D040C2F120029140084319467047AB
:10094000C0B24FF4F05100F0CFB900002DE9F34FE1
:100950008BB04FF0000801F10C000C464FF0010B7A
:1009600046460DF1080A01906269012101989047FD
:10097000051E2DD0252D2CD0216A8847C0B1626973
:10098000012101989047216A88470028F7D1411E2C
:1009900062690198904700E0761CA1690B9888472E
:1009A000216A88470028F7D1E1690B988847DBE77F
:1009B000A1690B9888470746A84201D1761CD3E766
:1009C000E1690B9888477F1C02D1B8F1000F6FD006
:1009D00046E1002762693D463946019890472A283A
:1009E00004D162690121019890470125DFF88492C2
:1009F0006269012101989047A0F130010A290AD2C9
:100A00004F45E5DC07EB870100EB4107303FDFD4C2
:100A100045F01005ECE7E90601D46FF000476C28BB
:100A20000AD04C2814D0682815D06A280DD0742814
:100A30001CD07A281AD01DE06269012101989047E4
:100A40006C2802D045F0040514E045F002050DE0E5
:100A500045F020050AE06269012101989047682865
:100A600002D045F0080505E045F400656269012102
:100A700001989047C4E9015765283DD019DC5828F2
:100A80007AD00CDC452837D004DC252826D0412834
:100A900031D131E046282FD047282CD12CE05B28DB
:100AA00077D0612828D063287CD0642823D15AE0ED
:100AB000D0E06F2848D008DC66281DD067281BD0FE
:100AC000692821D06E2816D127E0702845D07328D8
:100AD00068D0752847D078280DD14DE0A1690B98D2
:100AE0008847054625283FF469AFE1690B98884798
:100AF0006D1C3FF46AAFB3E023466A466FF0010015
:100B00000B99FFF71FFC9EE045F040006060A807CE
:100B100023464FF0000236D43EE0E8077FF447AFAB
:100B20002068011D21600068290501D506701BE7BA
:100B3000290701D5068017E7A90703D5F117C0E9F2
:100B4000006111E706600FE745F040006060A8070C
:100B500023464FF0080216D41EE040F60E0125EAA7
:100B60000100606016E045F040006060A807234681
:100B70004FF00A0207D40FE045F040006060A8077C
:100B800008D5234610226FF001000B99AFF30080C7
:100B900059E007E0234610226FF001000B99AFF3F4
:100BA000008050E04FF000094F464B46632802D0CA
:100BB0005B2806D040E0E80601D40120A0600127B0
:100BC0003AE062690121019890475E2805D14FF013
:100BD00001096269494601989047216939B90021A4
:100BE0000A46534643F82120491C0829FADBB0B3D2
:100BF000216969B9C11700EBD16253110AEB830176
:100C000022F01F02821A01200B68904003430B6000
:100C100062690121019890475D28E8D1B9F1000F80
:100C200009D00020514651F82020D24341F820201D
:100C3000401C0828F7DB02AB224600976FF001004A
:100C40000B99AFF3008000280CDA401C08D1BBF1EF
:100C5000000F05D04FF0FF300DB0BDE8F08FFFE77B
:100C60004046F9E7E90701D108F1010806444FF0D1
:100C7000000B79E6CCCCCC0C0029A8BF7047401CF7
:100C8000490008BF20F00100704710B4B0FA80FCA2
:100C900000FA0CF050EA010404BF10BC704749B1DF
:100CA000CCF1200421FA04F411FA0CF118BF01214F
:100CB00021430843A3EB0C01CB1D4FEA00614FEA2F
:100CC000102042BF002010BC704700EBC3501044FE
:100CD0000029A4BF10BC7047401C490008BF20F089
:100CE000010010BC704700007F2801D9002208E0F5
:100CF000064A02EB5002C007127800D1120902F036
:100D00000F0201209040084070470000A039000801
:100D100070B58D1810F8014B14F0030201D110F8D2
:100D2000012B231106D110F8013B03E010F8016BF1
:100D300001F8016B521EF9D1ABB110F8012B04F090
:100D40000C048A1A0C2C03D0A2EB84129B1C08E022
:100D500010F8014BA2EB0422F8E712F8014B01F85E
:100D6000014B5B1EF9D5A942D4D3002070BDFEE72C
:100D700030B502464FF6FF70064D07E012F8013B12
:100D80004340DBB2040A35F813006040491EC9B283
:100D9000F4D230BDA03700082DE9F04186B00646F8
:100DA0000121084601F094FA0121C80401F09EFADD
:100DB00000248DF8164001278DF8177002258DF854
:100DC00015508DF814500495DFF8708004A9404642
:100DD00000F030FE8DF81450049704A9404600F04E
:100DE00029FE08220021404600F062FE082201216F
:100DF000404600F05DFE642046430096ADF8044096
:100E0000ADF80640ADF80840ADF80C400C20ADF848
:100E10000A000B4C6946204602F0BEF900F038F893
:100E2000012240F22551204602F09BF90121204683
:100E300002F064F906B0BDE8F08100000000024055
:100E4000004C004070B5104DB5F8EE0060280AD097
:100E5000C02808D0B0F5C07F05D04FF4906188421B
:100E600001D0A5F8EE10B5F8EE00FFF795FF074C9E
:100E700000206070A070A5F860000720207000F0CE
:100E800029FE606070BD0000FC0300209803002074
:100E900008B54FF4A06001F0B3F834208DF80000DD
:100EA00001208DF8010003218DF802108DF8030058
:100EB000684601F071F808BD70B5134D687829785F
:100EC00088421FD31148017801291BD1407810288E
:100ED00018D100200E4C00F1780134F8112050395F
:100EE00024F81120401C0428F5DB00F0F3FDA9884C
:100EF000411A24F8581F68606089401C60810020F6
:100F0000A870687070BD000098030020EC0D0020F0
:100F1000FC03002010B5174817498278012A04D134
:100F2000B1F86020521CA1F860200022427001221A
:100F3000827031F8F00F0F4C020A0834E27120720F
:100F40004888020A6272A0728888020AE2722073DC
:100F5000C888010A6173A0730F212046FFF708FFBC
:100F6000E073000A20742146BDE8104011220348B6
:100F700002F085B998030020FC030020004C0040DB
:100F8000F0B587B006460121042001F0A1F9012146
:100F9000202001F0B9F900248DF81A4001208DF8C5
:100FA0001B0002258DF819508DF8185080210591ED
:100FB0001B4F05A9384600F03DFD8DF81850402024
:100FC000059005A9384600F035FD0822062138466F
:100FD00000F06EFD08220721384600F069FD64200C
:100FE00046430196ADF80840ADF80A40ADF80C4014
:100FF000ADF810400C20ADF80E000A4C01A92046B7
:1010000002F0CAF800F02EF8012240F225512046E5
:1010100002F0A7F80121204602F070F807B0F0BDF9
:10102000000802400014014010B50C49B1F8CE0090
:1010300060280AD0C02808D04FF4C072904204D073
:10104000B0F5906F01D0A1F8CE20B1F9CE00FFF736
:1010500097FF034900200870487010BDFC03002072
:101060007C03002008B54FF4A06000F0C9FF4720C2
:101070008DF8000001208DF8010003218DF8021089
:101080008DF80300684600F087FF08BD70B52DEDB0
:10109000028B82B0474D687800287CD0464C608A2D
:1010A000401C80B26082454EB2EE048A71785029AD
:1010B00017D1401C60822A1D41A13046FFF792F8EB
:1010C00001280ED100F006FD95ED010A20EE080A78
:1010D000BCEEC00A10EE101A2180A98A411A618064
:1010E00068617078002643285AD1324837A1103001
:1010F000031F00901A1F3148FFF774F803284FD1DF
:1011000000F0E8FC95ED020A20EE080ABCEEC00AE9
:1011100010EE101AA18095ED030A20EE080ABDEE2C
:10112000C00A10EE101AE18095ED040A20EE080ABC
:10113000BDEEC00A10EE101A2181298B411A61817F
:10114000A861B4F8F80008B10A2801D9A4F8F86039
:10115000B4F8FA006438642802D3C720A4F8FA006F
:10116000B4F8F80034F81010A4F8FC10B4F8FA1031
:1011700034F8102034F81110511A09B2B1F5E16FAA
:1011800003DDA2F56162A4F8FC2011F5E16F07DA36
:1011900034F8100000E008E000F56160A4F8FC00FD
:1011A000608A401C60822E706E7002B0BDEC028BB3
:1011B00070BD00007C030020FC030020EC0C00202C
:1011C00024504950532C25662C4D2A002443256673
:1011D0005025665225662A007047000070B501460A
:1011E0000F4DA868427842F080024270817003215E
:1011F000FFF7BEFDA968C870000A08710024094EF7
:10120000A868015D304602F029F84021304601F01F
:1012100081FF0028F9D0641C052CF1DB70BD0000B3
:1012200024000020001001400149086070470000C0
:101230000C3C024070B506460025002905D0012966
:1012400027D0022928D04FF4407500F081F80928F2
:101250001ED1134C206820F4407020602068284381
:101260002060206820F0F8002060206846F002012D
:1012700008432060206840F48030206000F068F867
:10128000216821F002012160216821F0F80121602C
:1012900070BD4FF48075D8E74FF40075D5E70000B6
:1012A000103C024009200D490A68D20301D50120F3
:1012B00070470A68D20601D5062070470A68D20531
:1012C00001D5022070470A6812F0E00F01D0072014
:1012D000704709688907FBD5082070470C3C02401D
:1012E0000248016841F0004101607047103C024033
:1012F00070B505460E4600F02BF8092813D10A4CAC
:10130000206820F440702060206840F480702060E5
:10131000206840F0010020602E8000F019F821685C
:1013200021F00101216070BD103C024005480068B9
:10133000002805DA034804490C38016003490160BC
:1013400070470000103C024023016745AB89EFCD98
:1013500008B509200090FFF7A5FF009002E0FFF715
:10136000A1FF00909DF800000128F8D09DF8000032
:1013700008BD000001460020A1F100624FF4804347
:101380009A4204D320480844984201D2082070476A
:101390001E480844984201D2102070471C48084457
:1013A000984201D2182070471A480844B0F5803F8F
:1013B00001D22020704718484FF400320844904270
:1013C00001D22820704715480844904201D23020AD
:1013D000704713480844904201D2382070471148A2
:1013E0000844904201D2402070470F480844904280
:1013F00001D2482070470D480844904201D2502045
:10140000704758207047000000C0FFF70080FFF7CA
:101410000040FFF70000FFF70000FEF70000FCF7B8
:101420000000FAF70000F8F70000F6F70000F4F704
:1014300010B5002305E030F8024B22F813405B1C86
:10144000DBB28B42F7D310BD2DE9F04105460E46C5
:101450001746FFF76BFFF320FFF7E6FE2846FFF77E
:1014600089FF044605EB4600FFF784FF804608E04D
:1014700002212046FFF7DEFE092800D0FEE70834EF
:10148000A4B24445F4D900240AE037F814102846E1
:10149000FFF72EFF092800D0FEE7AD1C641CA4B2A4
:1014A000B442F2D3BDE8F041FFF71ABF002801DDD6
:1014B000014600E0414200EE101AF8EEC00A9FED2E
:1014C000151A9FED150A10EE810A9FED141A00EE11
:1014D000801A9FED130A00EE810A411C032901D2F4
:1014E0009FED100A002804DDBDEEC00A10EE100AC0
:1014F00004E0BDEEC00A10EE100A4042B0F5004F05
:1015000001DB47F6FF7010F5004F00DC064800B223
:101510007047000045D8F03CF2D2E1409A59184497
:101520000020FD45000000000180FFFF2DE9F04F85
:1015300094B00446B4F91480B8F5E16F01DB40F2D1
:101540000778A249884501DC01F101084FF4E179EF
:10155000002600270DAD0DF10C0B01EB490003B285
:1015600001EB09000FFA80FA5246404600F010FAEB
:1015700005EB870080ED000A10EE101A94488142B6
:1015800003DD3146761C4BF8217051467F1C072F36
:10159000E3DB04E003AA002142F82610761C032EA8
:1015A000F8DBE18AA28A891A0FFA81FA8949B1F92E
:1015B0004A215142514503DBC2F101030FFA83FA7C
:1015C000524502DC531E0FFA83FA09B2D31702EB1D
:1015D000937292100FFA82FB4FF00008C1466F46DB
:1015E00001EB4B0003B201EB0B0006B23246504652
:1015F00000F0CEF906AA02EB890080ED000A10EE99
:10160000100A7349884204DD404608F1010847F892
:101610002090314609F10109B9F1070FE0DB002004
:101620003E4603E046F8280008F10108B8F1030F30
:10163000F8DB9FED691AB0EE410AF0EE401A002087
:10164000DFF8989117460DF10C0C00215CF8202072
:10165000C2EBC20305EB820209EB830392ED002A81
:1016600056F8212007EB820853F82220D8ED000A13
:1016700002EE902A22EE203AF8EEE22A43EE221AF7
:1016800002EE200A491C0329EADB401C0328DCDBAC
:10169000C1EE800A20680289FDEEE00A10EE901A81
:1016A00001EB8101114409B201812068642901DA4A
:1016B0006421018120684FF4FA61B0F908208A4260
:1016C00000DD0181F0EE411A0021DFF8109109F1EF
:1016D000C40900205CF82120C2EBC20305EB8202A2
:1016E00009EB8303D2ED000A56F8202007EB8208AD
:1016F00053F8222098ED002A60EE822A02EE102A8A
:10170000B8EEC22A42EE821A401C0328ECDB491CC8
:101710000329DEDBC1EE800A2068B0F90A20FDEE65
:10172000E00A10EE901A02FA81F109B241812068B4
:10173000012901DA012141812068B0F90A10142938
:1017400001DD142141810021DFF8948000205CF844
:101750002120C2EBC20305EB820208EB8303D2ED2A
:10176000000A56F8202007EB820953F82220D9ED11
:10177000001A20EEA12A01EE902AF8EEE11A02EEFC
:10178000211A401C0328ECDB491C0329DEDBC1EED7
:10179000000A21688A89BDEEE00A10EE100A00EB0B
:1017A0008000104400B288814FF47A722168904220
:1017B00000DA8A81206842F21071B0F90C208A4266
:1017C00000DD818114B0BDE8F08F0000F8F8FFFF64
:1017D0006F12833AFC03002000000000000100208B
:1017E000880200202DE9F04F94B007463868C18880
:1017F000B0F900205F4830F81200081A06B2B6F5BA
:10180000E16F01DB40F207765B498E4200DC4E1C43
:101810004FF4E179002400250DF134080DF10C0B93
:1018200001EB490003B201EB09000FFA80FA5246BE
:10183000304600F0ADF808EB850080ED000A10EEB0
:10184000101A4E48814203DD2146641C4BF821509A
:1018500051466D1C072DE3DB04E003AA002142F88A
:101860002410641C032CF8DBB98A711A0FFA81F971
:10187000BE824049B1F94A215142494503DBC2F1D8
:1018800001030FFA83F94A4502DC531E0FFA83F96C
:1018900009B2D31702EB9372921016B200240025FE
:1018A000EA4601EB460003B288190FFA80FB5A465C
:1018B000484600F06DF806AB03EB850080ED000AAA
:1018C00010EE100A2D49884203DD2046641C4AF8B8
:1018D000205059466D1C072DE3DB002002E04AF83A
:1018E0002400641C032CFADBDFED250AB0EE601A3D
:1018F0000021244E03AD002055F82120C2EBC20484
:1019000008EB820206EB8404D2ED001A5AF820207C
:1019100003EB820C54F822209CED000A02EE102A00
:1019200061EE802AB8EEC22A02EE821A41EE800AE7
:10193000401C0328EADB491C0329DCDB81EE200A7A
:101940003868DFED110A9FED111AB0F90E0060EE54
:10195000200A00EE100AB8EEC00A60EE800A80EE9F
:10196000810A14B0BDEEC00A10EE100A00B2BDE844
:10197000F08F0000FC030020F8F8FFFF6F12833A9D
:10198000000000003C0000200000024300009643DD
:1019900088420EDB90420CDC401A00EE100A501A0E
:1019A000F8EEC00A00EE100AB8EEC01A80EE810A06
:1019B000704790420EDD98420CDC181A00EE100AB7
:1019C000981AF8EEC00A00EE100AB8EEC01A80EEBF
:1019D000810A70479FED010A704700000000000077
:1019E0007CB50121022000F073FC4FF48054009478
:1019F00000208DF8060002208DF8070001218DF8E7
:101A000004108DF805000A4E6946304600F012F8C1
:101A1000650000956946304600F00CF821463046D6
:101A200000F056F82946304600F052F87CBD000020
:101A3000000402402DE9F041002201274FF0030C81
:101A400007FA02F50B682B40AB422CD10668530015
:101A50000CFA03F4A64306600E79D0F800809E408D
:101A600046EA080606600E79012E01D0022E12D138
:101A70008668A64386604E79D0F808809E4046EA84
:101A8000080686604668AE43466045688E79964093
:101A9000B6B235434560C568A543C560CC799C4066
:101AA000C3681C43C460521C102AC9D3BDE8F0812E
:101AB00010B54B07DB0E9A40C90800EB8100016AA4
:101AC0000F249C40A1430162016A1143016210BDD1
:101AD00001837047014840687047000034000020CF
:101AE0000A2804D2074931F81020012A01D0002029
:101AF0007047044A143A32F8102021F810200120CF
:101B00007047000030090020FEE710B545F255503F
:101B100000F032F8022000F023F840F6FF7000F0E9
:101B200025F800F015F8BDE8104000F001B80000FD
:101B300002494CF6CC40086070470000003000407D
:101B400002494AF6AA2008607047000000300040B1
:101B500002494AF6AA2008607047000000300040A1
:101B6000014948607047000000300040014988602A
:101B700070470000003000400149086070470000D5
:101B80000030004070B586B00121084600F0A0FB8F
:101B90000121102000F0B8FB00248DF81640012030
:101BA0008DF8170002258DF815508DF8145040025D
:101BB00004901C4E04A93046FFF73CFF8DF81450EA
:101BC0006902049104A93046FFF734FF07220A2175
:101BD0003046FFF76DFF072209213046FFF768FF07
:101BE0004FF4E1300090ADF80440ADF80640ADF898
:101BF0000840ADF80C400C20ADF80A000A4C6946CC
:101C0000204601F0C9FA00F011F8012240F22551F6
:101C1000204601F0A6FA0121204601F06FFA06B035
:101C200070BD0000000002400010014008B54FF4F4
:101C3000A06000F0E5F925208DF8000001208DF866
:101C400001008DF802008DF80300684600F0A4F949
:101C500008BDFEE70248C188491CC18070470000EA
:101C6000240000202DE9F0438A4CA0684178002927
:101C700004D0CA1F082A01D3102902D90120BDE8C7
:101C8000F0832179A1F10802F32A01D30320F6E7BA
:101C9000891EC9B2FFF76CF82179A268114411F8C6
:101CA000023D497843EA0121884201D00320E6E75A
:101CB000D078917840EA01205179137941EA0321E3
:101CC0005378DFF8D4C10126012B01D0022B3CD17F
:101CD000B1F5707F01D90320D1E74318C82B01D992
:101CE0000220CCE7921C4B0707D0CB085B1C02F804
:101CF000013B05460023002721E0CB08F7E73CF82D
:101D00001580B8F1000F08D092F8008006FA03F9A8
:101D100048EA090882F8008007E092F8008006FA95
:101D200003F928EA090882F800805B1CDBB2082B63
:101D300001D30023521C6D1CADB27F1CBFB28F4279
:101D4000DDD3A2689278521D6271A36808275A7881
:101D5000052A10D1C82801D3022090E7B1F57F4FA2
:101D600002D021B103208AE72CF8106002E00022A3
:101D70002CF8102067715A780F2A23D14218C82AEC
:101D800001D902207BE70022DB1D0CEB400C002573
:101D900015E093F8008006FA02F918EA090F02D05C
:101DA0004FF0010801E04FF000082CF8028B521CA4
:101DB000D2B2082A01D300225B1C6D1CADB28D4249
:101DC000E7D36771A368DFF8D4C05A78032A01D03B
:101DD000042A24D17D2901D9032050E700EB010812
:101DE000B8F1C80F01D9022049E70CEB40024D00C1
:101DF0009D70DB1C05460CE0B2F800904FEA1929F3
:101E000003F8019B92F8009003F8019B921C6D1C53
:101E1000ADB2A845F0D8A2689278521D6271A2684E
:101E20005378062B0ED1C82801D3022027E72CF8BF
:101E30001010642800D32670A0F16403142B00D87E
:101E4000667067715378102B22D100EB0108B8F14E
:101E5000C80F01D9022012E7D21D0CEB4001034646
:101E60000CE012F8015B2D020D8012F801CB4CEA58
:101E7000050CA1F800C0891C5B1C9BB29845F0D8EA
:101E8000642800D326706438142800D26670677105
:101E90000020F4E6240000208C050020FC03002034
:101EA00010B59AB01C4A1B48906000F58070D06055
:101EB000A0F584640121A4F8C810B4F9CA00602810
:101EC0000BD0C02809D0B0F5C07F06D04FF4906386
:101ED000984202D0A4F8CA301170481EFE2802D3DE
:101EE000A4F8C8101170FFF7A1FEC83464216088FF
:101EF00010FB01F0FFF746FEB4F90230B4F9002000
:101F000006A101A801F0E6F901A90E4801F0CEF9F9
:101F10001AB010BD1C070020240000202050726F52
:101F20006772616D20496E697469616C697A652EAA
:101F30002E2E204164723A25642C20426175643A49
:101F4000256400000010014070B5104CE0880528A1
:101F50001AD9A068E168A160E060A078207100252E
:101F6000A5700122E27008280DD308780849B1F95C
:101F7000C810884207D1FFF775FE10B1FFF72EF9A0
:101F800001E000F047F8E58070BD0000240000206B
:101F9000FC0300207047000030B50F23C2780125F4
:101FA0000178002A1FD0154A126802F4E062C2F5D7
:101FB000E062C2F30722C2F10404D3404278A24097
:101FC00084781C401443220101F1E02181F80024AF
:101FD000007800F01F018D404009800000F1E020F2
:101FE000C0F8005130BD01F01F0085404809800055
:101FF00000F1E020C0F8805130BD00000CED00E0A1
:102000000249084302490860704700000000FA05D1
:102010000CED00E070B5124D6879801EC1B2A86861
:10202000FEF7A6FE6A79A9680A4402F8020C6A79EA
:10203000000A114401F8010C00240A4E0BE0A868C4
:10204000015D304601F00AF94021304601F062F8A6
:102050000028F9D0641C68798442F0DB70BD000070
:102060002400002000100140054A02EB41010160FC
:1020700000210181C16001618182C182704700003D
:10208000FC030020F0B50168514E4A8A002A17D19E
:102090000289AAB1B1F902104E4A26F81120B0F90E
:1020A0000810022901D0032905D10168B1F90210F5
:1020B000491C26F8112000218182C1820161C16082
:1020C0000268518A0181518A00297DD0B2F900301D
:1020D000B2F9061036F91330C91AB0F91430B2F952
:1020E0000840CD1A6C43558915FB0344B0F91650CE
:1020F0005F4201EB47073D44B2F90C7007FB054412
:10210000C3828182C168138AEBB30B194FF0FA7155
:102110008B4200DD0B4630498B4200DA0B46B2F9A8
:102120000E106424C90391FBF4F4641E4FF47A7119
:1021300093FBF1F1A14200DD21466442A14200DAA5
:102140002146B2F90440B6F940518D4203DB6F429B
:102150008F4200DC00218D4208DA47F6FF77A7EBBB
:10216000040C0CFB01FC9CFBF7F121446D428D42F9
:1021700007DDC4F500454D43E91705EB5141C4EBBC
:10218000E13189B200E00BE0B2F9022001F5004430
:1021900024B226F812400268558A022D02D006E0C9
:1021A0000B1BB3E7B2F90220521C26F8124002685A
:1021B000548A032C06D1C1F50044B2F90210491C1F
:1021C00026F81140C16800E001E00161C360F0BD84
:1021D000FC0300200080FFFF00000CFE01680022CD
:1021E000B1F90030832B00D30A800168B1F90230C5
:1021F000643B642B01D3C7234B800168B1F90E30D7
:10220000002B00DACA810168B1F90E30642B01DDC0
:102210006423CB810068B0F91210042900D34282F4
:1022200070470000F0B50368264DB3F90020D98847
:1022300035F81220891A09B2B0F91420B3F9084010
:102240008E1A74435E8916FB0244B0F91660574239
:1022500001EB47073E44B3F90C7007FB064426B276
:10226000C2828182C468A219174EB24200DD324692
:10227000154E7642B24200DA3246B3F90E3053437D
:10228000642693FBF6F342F2107693FBF6F31BB24F
:10229000002903DD002B01DAB5F94831002905DA00
:1022A000002B03DDB5F848315B421BB2B5F946514E
:1022B0008D4203DD6D428D4200DA00230461C2606D
:1022C0001846F0BDFC03002020D613007047000024
:1022D000054A002903D01168014311607047116855
:1022E000814311607047000030380240054A0029E0
:1022F00003D0116801431160704711688143116078
:102300007047000040380240054A002903D0116898
:1023100001431160704711688143116070470000EC
:102320004438024070B5244B196801F00C01234C6D
:1023300000291ED0224E04291DD008291DD004607A
:10234000196801F0F00109091E4A545C0168E14076
:1023500041601C6804F4E054A40A145D21FA04F4FA
:1023600084601B6803F460435B0BD25CD140C160A6
:1023700070BD0460E4E70660E2E70F4A121F1168CF
:10238000C1F38055116801F03F0135B1B6FBF1F1A1
:102390001468C4F38814614305E0B4FBF1F11468D8
:1023A000C4F3881461431268C2F30142521C520004
:1023B000B1FBF2F10160C3E7083802400024F400E9
:1023C00040787D0114000020F0B587B00646012159
:1023D0000220FFF77DFF01218804FFF787FF00241B
:1023E0008DF81A4001208DF81B0002258DF8195038
:1023F0008DF81850C10205911B4F05A93846FFF70B
:1024000019FB8DF818506802059005A93846FFF7AA
:1024100011FB07220A213846FFF74AFB07220B214E
:102420003846FFF745FB642046430196ADF8084067
:10243000ADF80A40ADF80C40ADF810400C20ADF8F6
:102440000E000A4C01A9204600F0A6FE00F03EF85E
:10245000012240F22551204600F083FE0121204652
:1024600000F04CFE07B0F0BD000402400048004000
:1024700070B5134DB5F8D60060280AD0C02808D032
:102480004FF4C071884204D0B0F5906F01D0A5F828
:10249000D610B5F8D600FFF797FF0A4C0020A070C1
:1024A000E070A88495F8DC00052101EB4000207065
:1024B000FFF710FB6060BDE87040034800F0E5BB2B
:1024C000FC0300205C030020840B002008B54FF4BF
:1024D000A060FFF795FD27208DF8000001208DF802
:1024E000010003218DF802108DF803006846FFF704
:1024F00053FD08BD2DE9F0412F4DA8782978884279
:1025000058D32E4E2E4C3078B4F8D810884251D182
:10251000707803284ED1B078B4F8DC10B0EB410FDE
:1025200048D1FFF7D7FAA18AA183E28AE283228BFE
:1025300022843279F37842EA0322A282AB88C31A5A
:102540009BB2E3826860501A20834FF480664FF498
:102550004067B2420BD2B94209D900F5805CA4F8B9
:1025600018C0B4F80EC00CF1010CA4F80EC0BA42A9
:1025700007D9B14205D2A0F580502083E089401EE2
:10258000E08133B1208B4FF47A714843B0FBF3F014
:102590006083B4F91620B4F918100A4800F055FB0E
:1025A000084800F045FB6084E08C401CE08400207B
:1025B000E870A870BDE8F0815C030020840A002068
:1025C000FC030020840B00202DE9F041184D19492F
:1025D000E878012802D1888C401C88840027AF70DD
:1025E0000120E870144E6A783078104317D0104CF0
:1025F00011F8D80F083420704888020AA270E070E1
:102600008888010A2171607106212046FEF7B0FB1F
:10261000A071000AE0713078401C30706F70BDE826
:10262000F041034908220831044800F028BE0000A8
:102630005C030020FC03002025000020004800402F
:10264000F0B587B0064601211020FFF741FE0121B9
:102650008807FFF74BFE00248DF81A4001208DF803
:102660001B0002258DF819508DF8185001020591B4
:102670001B4F05A93846FFF7DDF98DF8185080206B
:10268000059005A93846FFF7D5F9082207213846F5
:10269000FFF70EFA082211463846FFF709FA6420C0
:1026A00046430196ADF80840ADF80A40ADF80C403D
:1026B000ADF810400C20ADF80E000A4C01A92046E0
:1026C00000F06AFD00F03EF8012240F2255120465C
:1026D00000F047FD0121204600F010FD07B0F0BDDD
:1026E000001002400078004070B5134DB5F8DE00D0
:1026F00060280AD0C02808D04FF4C071884204D0A6
:10270000B0F5906F01D0A5F8DE10B5F8DE00FFF748
:1027100097FF0A4C0020A070E070288795F8E4002D
:10272000052101EB40002070FFF7D4F96060BDE89F
:102730007040034800F0A9BAFC0300206C0300209D
:10274000B80C002008B54FF4A060FFF759FC5220E8
:102750008DF8000001208DF8010003218DF8021092
:102760008DF803006846FFF717FC08BD2DE9F0411E
:102770002F4DA8782978884258D32E4E2E4C307889
:10278000B4F8E010884251D1707803284ED1B07867
:10279000B4F8E410B0EB410F48D1FFF79BF9218D5D
:1027A0002186628D6286A28DA2863279F37842EA12
:1027B00003222285AB88C31A9BB263856860501AD6
:1027C000A0854FF480664FF44067B2420BD2B94205
:1027D00009D900F5805CA4F82CC0B4F810C00CF145
:1027E000010CA4F810C0BA4207D9B14205D2A0F535
:1027F0008050A085208A401E208233B1A08D4FF4E6
:102800007A714843B0FBF3F0E085B4F92A20B4F9BB
:102810002C100A4800F019FA084800F009FAE0867E
:10282000608F401C60870020E870A870BDE8F081D0
:102830006C030020B80B0020FC030020B80C002023
:102840002DE9F041184D1949E878012802D1088F87
:10285000401C08870027AF700120E870144E6A788A
:102860003078104317D0104C11F8E00F0834207066
:102870004888020AA270E0708888010A217160719C
:1028800006212046FEF774FAA071000AE071307844
:10289000401C30706F70BDE8F041034908220831D8
:1028A000044800F0ECBC00006C030020FC03002096
:1028B0002500002000780040F0B587B006460121D1
:1028C0000846FFF705FD01214804FFF70FFD00242E
:1028D0008DF81A4001208DF81B0002258DF8195043
:1028E0008DF81850082105911B4F05A93846FFF7B0
:1028F000A1F88DF818500420059005A93846FFF777
:1029000099F8072202213846FFF7D2F8072203215F
:102910003846FFF7CDF8642046430196ADF80840ED
:10292000ADF80A40ADF80C40ADF810400C20ADF801
:102930000E000A4C01A9204600F02EFC00F03EF8E3
:10294000012240F22551204600F00BFC01212046D7
:1029500000F0D4FB07B0F0BD00000240004400408E
:1029600070B5134DB5F8E60060280AD0C02808D02D
:102970004FF4C071884204D0B0F5906F01D0A5F833
:10298000E61035F8E60FFFF797FF0A4C0020A0701D
:10299000E07025F89A0CA879052101EB4000207021
:1029A000FFF798F86060BDE87040034800F06DB92B
:1029B000FC0300204C030020500A002008B54FF40F
:1029C000A060FFF71DFB26208DF8000001208DF888
:1029D000010003218DF802108DF803006846FFF70F
:1029E000DBFA08BD2DE9F041324DA87829788842FC
:1029F0005DD3314E314C3078B4F8E810884256D16E
:102A00007078032853D1B078B4F8EC10B0EB410FD4
:102A10004DD1FFF75FF834F83C1F21816288628155
:102A2000A288A2813279F37842EA03222280AB881D
:102A3000C31A9BB263806860501AA0803C3C4FF47C
:102A400080664FF44067B2420BD2B94209D900F513
:102A5000805CA4F840C0B4F812C00CF1010CA4F8DA
:102A600012C0BA4208D9B14206D2A0F58050A4F8EB
:102A70004000608A401E608243B1B4F840004FF4C9
:102A80007A714843B0FBF3F0A4F8420034F93E2FCA
:102A90000B48B4F9021000F0D8F8094800F0C8F863
:102AA000A081208A401C20820020E870A870BDE828
:102AB000F08100004C03002050090020FC0300209E
:102AC000500A00202DE9F041194D1A49E8780128F3
:102AD00004D1B1F84C00401CA1F84C000027AF70A5
:102AE0000120E870144E6A783078104317D0104CEB
:102AF00011F8E80F083420704888020AA270E070CC
:102B00008888010A2171607106212046FEF730F99C
:102B1000A071000AE0713078401C30706F70BDE821
:102B2000F041034908220831044800F0A8BB000026
:102B30004C030020FC03002025000020004400403E
:102B4000704700001CB50021019100912E4A1068C9
:102B500040F4803010604FF4A043106800F400305F
:102B600000900198401C0190009810B9019898427B
:102B7000F3D11068800302D50120009000E000919D
:102B8000009801283FD120484030016841F0805131
:102B900001601E49086840F4404008601A48083047
:102BA00003680360036843F400430360036843F46D
:102BB000A0530360041F164B2360136843F0807317
:102BC000136013689B01FCD50A6842F480320A60E6
:102BD0004A68D203FCD50A6842F400320A604A68A7
:102BE0009203FCD50B4A40F205711160016821F097
:102BF00003010160016841F0020101600168C1F355
:102C000081010229FAD11CBD003802400070004049
:102C1000195A4007003C02400A2806D2034A491CC0
:102C200022F81010143222F8101070471C090020EE
:102C30008168002907D040684FF47A72504390FBB6
:102C4000F1F000B270470020704730B543685C185F
:102C50004460038800EB4303B3F90C50641B4460E9
:102C6000846814448460B3F92050641B84609981A3
:102C7000018800EB41010A840188491C89B2018066
:102C80000A2901D30021018030BD00230380438045
:102C900043608360002100EB410293811384491C4F
:102CA0000A29F8DB7047000010B5FEF7D3FF0C4887
:102CB0004168491C4160016811B90168491E016001
:102CC0000020084931F81020012A04D931F81020D9
:102CD000521E21F81020401C0A28F3DB10BD000012
:102CE000340000203009002010B5164842F210715F
:102CF0000068B0FBF1F0401E00214FF0E022B0F17F
:102D0000807F01D3012007E050610F4BF020187045
:102D1000916107201061002000B1FEE7106960F0AA
:102D2000010010610020094A02F1140302F1280495
:102D300022F8101023F810102154401C0A28F7DB49
:102D400010BD00000000002023ED00E01C09002061
:102D500010B51248016841F4700101601048016823
:102D600041F0010101600E4A002108321160026841
:102D70000C4B1A400260031D0B4A1A60026822F4D1
:102D80008022026006480C300160FFF7DBFE034939
:102D90004FF000608039086010BD000088ED00E051
:102DA00000380240FFFFF6FE1030002430B5024626
:102DB0000846FEF77BFB124CA4F844011368198AFD
:102DC00009B9404200B2B3F9023000F5004109B23E
:102DD00024F8131013685D8A022D04D1B3F9023070
:102DE0005B1C24F8131011684A8A032A06D1B1F932
:102DF0000210C0F50040491C24F8110030BD00004D
:102E0000FC03002070B504462C4E2068418A00293E
:102E100017D12189A9B1B0F90200294926F810106B
:102E2000B4F90800022801D0032805D12068B0F9C0
:102E30000200401C26F810100020A082E0822061D1
:102E4000E0602068418A2181418A002935D080884C
:102E500018B92046FFF7E6F9054620688088012862
:102E600003D12046FEF7BEFC054620688088022874
:102E700010D1B4F9140040F2572100F22B1088420F
:102E800004D22046FFF7CEF9054603E02046FEF7C0
:102E9000A9FC054620688088032806D12046FFF754
:102EA000C1F905462046FEF741FBA6F842512946E6
:102EB0002046BDE87040FFF779BF70BDFC030020DD
:102EC0000080FFFF70B5104C40F22551204600F005
:102ED00028F940B1204600F0BDF90C4B59784A1C46
:102EE0005A700B4A505440F227752946204600F08C
:102EF00018F9002806D029462046BDE87040002277
:102F000000F02FB970BD0000004C00409803002075
:102F1000EC0D002070B5104C40F22551204600F019
:102F200000F940B1204600F095F90C4B99784A1C05
:102F30009A700B4A505440F227752946204600F0FB
:102F4000F0F8002806D029462046BDE8704000224F
:102F500000F007B970BD0000007800406C0300204D
:102F6000B80B002070B5164C40F22551204600F0F9
:102F7000D8F8A8B1204600F06DF9C1B2114B002578
:102F8000D87860B11048B0F9C800884202D098786B
:102F900000B9DD709A78501C9870D8688154DD8033
:102FA00040F227752946204600F0BBF8002806D0DD
:102FB00029462046BDE87040002200F0D2B870BD1E
:102FC0000010014024000020FC03002070B5104CCC
:102FD00040F22551204600F0A4F840B1204600F010
:102FE00039F90C4B99784A1C9A700B4A505440F2AC
:102FF00027752946204600F094F8002806D0294677
:103000002046BDE87040002200F0ABB870BD000063
:10301000004400404C0300205009002070B5104CC3
:1030200040F22551204600F07CF840B1204600F0E7
:1030300011F90C4B99784A1C9A700B4A505440F283
:1030400027752946204600F06CF8002806D029464E
:103050002046BDE87040002200F083B870BD00003B
:10306000004800405C030020840A002070B51F4D1A
:1030700040F22551284600F054F838B3284600F0B5
:10308000E9F8C1B201261A481A4C2A290BD1227834
:103090000A2A08D9637833B9531CDBB223708154F0
:1030A0000022C2546670227822B1637813B9531C8F
:1030B00023708154242909D122783AB962782AB937
:1030C000267001700C48C189491CC18140F22774E7
:1030D0002146284600F025F8002806D0214628463B
:1030E000BDE87040002200F03CB870BD0014014003
:1030F000EC0C00207C030020FC030020002904D0FD
:10310000818941F4005181817047818921F4005106
:10311000818170470246002012880A4200D00120B7
:10312000704770B5002440F66A12C1F3421301F0F3
:103130001F05012606FA05F2012B0CD0022B0DD03B
:10314000838A1340090A8E40008830400BB100B1D9
:103150000124204670BD83891340F3E7038A13409E
:10316000F0E710B540F66A13C1F3421301F01F04F3
:103170000121A140012B07D0022B07D014303AB116
:1031800002680A43026010BD0C30F8E71030F6E721
:1031900002688A43026010BD7FB504460D46208A4E
:1031A00020F44051E88808432082A08941F20C6154
:1031B0008843A9882A8911436A8902431143A1815E
:1031C000A08A20F44071A8890843A0826846FFF7CE
:1031D000A9F81E48844202D01D48844201D10398B8
:1031E00000E00298A189090408D500EBC00101EBB9
:1031F000001029684900B0FBF1F007E000EBC001C6
:1032000001EB001029688900B0FBF1F06422B0FBEB
:10321000F2F109010B096FF018056B4300EB830015
:10322000A3891D044FF0320307D503EBC000B0FBA8
:10323000F2F000F00700084306E003EB0010B0FBDB
:10324000F2F000F00F00084320817FBD0010014024
:10325000001401408088C0F308007047C1F30801E2
:1032600081807047FEE710B504462046FFF7F6FF61
:1032700080212046FFF74EFF0028F9D010BD2DE930
:10328000F04107460D46164600240BE015F8011BD9
:103290003846FFF7E3FF80213846FFF73BFF002861
:1032A000F9D0641CB442F1DBBDE8F08170B506468C
:1032B0000D4600243046295DFFF7D5FF641C285DCC
:1032C0000028F7D140213046FFF724FF0028F9D02D
:1032D00070BD00000FB4084B10B504A902AA0398F2
:1032E00000F022F8044602A9002000F0C7F82046AA
:1032F00010BC5DF814FB00007D34000802E008C833
:10330000121F08C1002AFAD170477047002001E05F
:1033100001C1121F002AFBD1704730380A2801D2A0
:1033200001207047002070472DE9FF4F89B09B4670
:103330000446002506E025280BD05A460B999047F5
:10334000641C6D1C20780028F5D10DB02846BDE81E
:10335000F08F0027B8460122474900E0074314F8E0
:10336000013F203B02FA03F00842F7D120782E28D3
:1033700019D114F8010F47F004072A280ED06FF076
:103380002F022078A0F1300109290CD808EB880120
:1033900002EB410100EB0108641CF2E70A98641C8F
:1033A00050F8048B0A9020780028CED0642808D0EA
:1033B000692806D075281ED05A460B9990476D1C77
:1033C00058E00A994FF00A0901C90A91002802DA67
:1033D00040422D2102E0390504D52B218DF8201023
:1033E000012103E0F90704D02021F7E78A4608AE5F
:1033F0000DE00021FAE70A994FF00A0901C90A9184
:10340000F7E74946FDF79BF9303106F8011D002822
:10341000F7D1ADEB060000F12009780701D44FF099
:103420000108C84502DDA8EB090000E00020804645
:10343000002706E008A85A46C05D0B9990476D1C0E
:103440007F1C5745F6DB04E030205A460B99904725
:103450006D1CB8F10001A8F10108F5DC05E016F8D3
:10346000010B5A460B9990476D1CB9F10001A9F167
:103470000109F4DC641C65E7092801000A68531C93
:103480000B6010707047000008B50025A846FFF7D4
:103490002BFCFEF7A5FABA4A6421BA480092FDF760
:1034A000C7FFB74E303636F82C0C401C26F82C0CD3
:1034B000B5484FF0010A80F800A0FEF7F1FCFDF7D7
:1034C000B3FDFEF7D5FFFFF70FF9FFF749FAFDF758
:1034D000B9FCA946A6F81E90A6F83290A6F8469028
:1034E000A6F84890DFF8A4B226F808BC26F806BC77
:1034F00026F804BC26F802BCA6F806A005203081F8
:10350000A6F80A9002213180992171801B21B18196
:103510007921F18141F6CC1CA6F810C04FF4487215
:10352000B2824FF4FA71F182308364237383A6F878
:103530001C904FF0110EA6F820E04FF07A0EA6F87E
:1035400022E0A6F824C032857185B085F385A6F8FF
:1035500030A07E20B0867920F086A6F838A0B28709
:103560000320F0870801A6F84000A6F84230A6F82C
:1035700044A0A6F84A901420A6F84E00A6F85000E1
:103580003C20A6F85200F83E0020FFF745FB4FF420
:103590007A710120FFF740FB64210220FFF73CFB1A
:1035A00064210320FFF738FBC8210420FFF734FB18
:1035B000FEF7ABFA82217648FEF756FD74488C215F
:1035C0001830FEF751FD724896213030FEF74CFD61
:1035D000FEF7BAFCFDF75AFDFEF78CFFFFF7C6F8C1
:1035E000FFF700FAFDF768FC0020FEF779FA60B1FA
:1035F000FEF7A6FA6748016881F400510160664849
:1036000001780A2901D980F800900120FEF768FAB4
:10361000B0B1DFF874A19AF8000088B1642159486C
:10362000009AFDF711FF5A48FEF7D8FD58481830A8
:10363000FEF7D4FD56483030FEF7D0FD8AF80090F2
:103640000220FEF74DFA50B15148FEF71BFD5048DD
:103650001830FEF717FD4E483030FFF7D3FB03203C
:10366000FEF73EFA28B1FEF7AFFFFFF7E9F8FFF7E4
:1036700029FA0420FEF734FA0028A9D0FDF74AFC05
:10368000B6F8020101286BD1B6F9FE00411E0429EB
:103690001BD2D5B9B6F900216FF009018A4201DACF
:1036A000A6F80011B6F900110A2902DD0A21A6F8D0
:1036B00000110125B6F90071002F03DD40F6C64167
:1036C0004F4301E035494F430024012D2AD1B6F97B
:1036D0000011002902DD04F5004101E0C4F50041BC
:1036E000773026F8101004F28F24BC4201DB02254B
:1036F0000024B6F9FE0020B9B6F94A10491D0B297D
:103700000DD2012804D1B6F93610491D0B2906D275
:10371000022807D1B6F92200401D0B2802D300254C
:10372000A6F80291022D04D1641C0A2C01DD0325A8
:103730003C46032D14D1B6F90001002802DD04F542
:10374000004001E0C4F50040B6F9FE10773126F8DC
:103750001100A4F28F24002C02DC0025A6F80291AF
:10376000B6F8020140B9B8F1000F05D00025B6F94E
:10377000FE00773026F810B0B6F9028128E7000085
:10378000C404002000000108240000200080FFFF86
:10379000B403002014040240250000203AF3FFFF88
:1037A0000000C1C081C1400101C3C003800241C209
:1037B00001C6C006800741C70005C1C581C44004D9
:1037C00001CCC00C800D41CD000FC1CF81CE400E89
:1037D000000AC1CA81CB400B01C9C009800841C899
:1037E00001D8C018801941D9001BC1DB81DA401A09
:1037F000001EC1DE81DF401F01DDC01D801C41DCD9
:103800000014C1D481D5401501D7C017801641D608
:1038100001D2C012801341D30011C1D181D0401018
:1038200001F0C030803141F10033C1F381F2403208
:103830000036C1F681F7403701F5C035803441F4D8
:10384000003CC1FC81FD403D01FFC03F803E41FE88
:1038500001FAC03A803B41FB0039C1F981F8403898
:103860000028C1E881E9402901EBC02B802A41EA08
:1038700001EEC02E802F41EF002DC1ED81EC402CD8
:1038800001E4C024802541E50027C1E781E6402608
:103890000022C1E281E3402301E1C021802041E018
:1038A00001A0C060806141A10063C1A381A2406208
:1038B0000066C1A681A7406701A5C065806441A4D8
:1038C000006CC1AC81AD406D01AFC06F806E41AE88
:1038D00001AAC06A806B41AB0069C1A981A8406898
:1038E0000078C1B881B9407901BBC07B807A41BA08
:1038F00001BEC07E807F41BF007DC1BD81BC407CD8
:1039000001B4C074807541B50077C1B781B6407607
:103910000072C1B281B3407301B1C071807041B017
:103920000050C190819140510193C0538052419207
:103930000196C056805741970055C19581944054D7
:10394000019CC05C805D419D005FC19F819E405E87
:10395000005AC19A819B405B0199C0598058419897
:103960000188C04880494189004BC18B818A404A07
:10397000004EC18E818F404F018DC04D804C418CD7
:103980000044C184818540450187C0478046418607
:103990000182C042804341830041C1818180404017
:1039A000DDDDDDDDDCBBBBDDDDDDDDDDDDDDDDDD8C
:1039B00098888888888888887777777777888888CC
:1039C0008555555666666666666666666668888864
:1039D0008333333222222222222222222228888D5D
:1039E000003A000800000020B4030000100D000899
:1039F000D43A0008B40300203C0F00000C33000848
:103A000050060095BA0A0001600901020304060786
:103A100008090CA1100112012005FDFFFFFF04524F
:103A2000FE042101313CD11CD2FF1C0215FE34A141
:103A30001CA14C5202040211FF30A11CE1302118DC
:103A40009203B0E118A10461349201E0A11CD201FB
:103A50001C0211023461E901121861F402110130F3
:103A6000A11CE13056FE646574E11852FD5492FFCA
:103A700010D2FD6C0615FFA8E16C0211FF1CE101DC
:103A8000021D000152038C9601A406110168D202A6
:103A90001C0219FDA409164C611C091264091E4C74
:103AA0000A15FE4CA930E118E11CE94C5655D947DE
:103AB000010379011E10051A486E55940312100D6A
:103AC00000100004081111222233334444CCCC00EE
:043AD00000000000F2
:04000005080001AD41
:00000001FF
